:100000000C9462000C948A000C948A000C948A0070
:100010000C948A000C948A000C948A000C948A0038
:100020000C948A000C948A000C948A000C948A0028
:100030000C948A000C948A000C948A000C948A0018
:100040000C944D060C948A000C94BD060C949706F3
:100050000C948A000C948A000C948A000C948A00F8
:100060000C948A000C948A000000000024002700F1
:100070002A0000000000250028002B0000000008D6
:10008000000201000003040700000000000000005F
:1000900000000000230026002900040404040404D6
:1000A0000404020202020202030303030303010227
:1000B00004081020408001020408102001020408F6
:1000C0001020EF0611241FBECFEFD8E0DEBFCDBF5A
:1000D00011E0A0E0B1E0ECE7F7E102C005900D927D
:1000E000AA36B107D9F722E0AAE6B1E001C01D9215
:1000F000A334B207E1F710E0C2E6D0E004C02197D4
:10010000FE010E94B60BC136D107C9F70E945A07FB
:100110000C94BC0B0C940000CF92DF92EF92FF92F4
:10012000CF93DF93B0911F02A0E08111AB2F80919C
:10013000200290E0880F991FAC0140575F4FC0909C
:100140002502D0902602E0902702F090280230E0AD
:1001500020E0FA01C591D491E881B90190E080E0F6
:10016000EB23EA130AC02F5F3F4F6C157D058E0508
:100170009F0578F36FEF7FEFCB01DF91CF91FF9079
:10018000EF90DF90CF90089590E0FC01E458FF4F8E
:100190002491FC01E255FF4F3491FC01E656FF4FDC
:1001A000E491EE23C9F0222339F0233001F1A8F4C1
:1001B000213019F1223029F1F0E0EE0FFF1FEE5847
:1001C000FF4FA591B4918FB7F894EC91611126C0BF
:1001D00030953E233C938FBF08952730A9F02830F7
:1001E000C9F0243049F7809180008F7D03C0809151
:1001F00080008F7780938000DFCF84B58F7784BDB8
:10020000DBCF84B58F7DFBCF8091B0008F7780935B
:10021000B000D2CF8091B0008F7DF9CF3E2BDACFE6
:10022000CF93DF9390E0FC01E255FF4F2491865677
:100230009F4FFC0184918823D1F090E0880F991F93
:10024000FC01E859FF4FA591B491FC01EE58FF4F16
:10025000C591D491623071F49FB7F8943C91822F8C
:10026000809583238C93E8812E2B28839FBFDF9179
:10027000CF9108958FB7F894EC912E2B2C938FBFCC
:10028000F6CF3FB7F8948091730190917401A091DB
:100290007501B091760126B5A89B05C02F3F19F0D6
:1002A0000196A11DB11D3FBFBA2FA92F982F8827F6
:1002B000BC01CD01620F711D811D911D42E0660FD1
:1002C000771F881F991F4A95D1F708958F929F92A3
:1002D000AF92BF92CF92DF92EF92FF926B017C01BF
:1002E0000E9441014B015C01C114D104E104F104FD
:1002F000B9F00E944101681979098A099B09683E91
:1003000073408105910580F321E0C21AD108E1080C
:10031000F10888EE880E83E0981EA11CB11CE4CF82
:10032000FF90EF90DF90CF90BF90AF909F908F9015
:100330000895CF92DF92EF92FF920F931F93CF9386
:10034000DF93CDB7DEB7C054D1400FB6F894DEBF0F
:100350000FBECDBF2FB7F8948091770190917801AF
:10036000A0917901B0917A012FBF40912102509163
:10037000220260912302709124028C019D01041BD2
:10038000150B260B370BB901A801403D57406105FD
:10039000710590F480912902C05CDE4F0FB6F8948D
:1003A000DEBF0FBECDBFDF91CF911F910F91FF90A8
:1003B000EF90DF90CF9008958093210290932202D6
:1003C000A0932302B093240210921C0210921B02ED
:1003D00010921A02109219021092180262E0809193
:1003E0001D020E94100161E070E080E090E00E9438
:1003F000660161E080911D020E94100160E0809121
:100400001D020E94C40080911E028551823020F599
:100410008BE291E10197F1F762E080911D020E9469
:10042000100180912A0290E08230910538F0880F07
:10043000991F880F991F05970197F1F7F89480E0AD
:100440000E948C006F3F7F4F8F4F9F4F61F410923F
:100450002902789480E0A0CF64E170E080E090E031
:100460000E946601D9CF81E00E948C006F3F7F4FD0
:100470008F4F9F4F61F38E010F5F1F4F6E018FEB08
:10048000C81A8EEFD80A780180E00E948C00F7012C
:10049000608371838283938381E00E948C00F701E3
:1004A0006483758386839783F8E0EF0EF11CEC1468
:1004B000FD0451F7789430E020E0F801C080D1804D
:1004C000E280F3804481558166817781FFEFCF160A
:1004D000DF06EF06FF0631F04F3F8FEF5807680742
:1004E000780719F410922902B5CFF90183E0F59548
:1004F000E7958A95E1F7E85EFD4F8081880FC41685
:10050000D506E606F70610F180832F5F3F4F085FA0
:100510001F4F2832310589F640911C0220911802A4
:1005200080911902280F3327331F80911A02280F58
:10053000311D80911B02820F932F911D992748171F
:10054000190681F681E08093290226CF8160DCCFF5
:10055000AF92BF92CF92DF92EF92FF920F931F93D1
:10056000CF93DF936C017B018B01040F151FEB010F
:100570005E01AE18BF08C017D10759F06991D601C6
:10058000ED91FC910190F081E02DC6010995892B38
:1005900079F7C501DF91CF911F910F91FF90EF90F7
:1005A000DF90CF90BF90AF900895FC01538D448DA4
:1005B000252F30E0842F90E0821B930B541710F00E
:1005C000CF96089501970895FC01918D828D98171B
:1005D00061F0A28DAE0FBF2FB11D5D968C91928DF3
:1005E0009F5F9F73928F90E008958FEF9FEF089524
:1005F000FC01918D828D981731F0828DE80FF11DED
:10060000858D90E008958FEF9FEF0895FC01918D07
:10061000228D892F90E0805C9F4F821B91098F7300
:10062000992708958BE791E00E94060321E0892B2A
:1006300009F420E0822F089580E090E0892B29F0D2
:100640000E94120381110C9400000895FC01A48DF6
:10065000A80FB92FB11DA35ABF4F2C91848D90E0E4
:1006600001968F739927848FA689B7892C93A089C7
:10067000B1898C91837080648C93938D848D981351
:1006800006C00288F389E02D80818F7D80830895E4
:10069000EF92FF920F931F93CF93DF93EC0181E0D2
:1006A000888F9B8D8C8D98131AC0E889F989808179
:1006B00085FF15C09FB7F894EE89FF896083E889AC
:1006C000F98980818370806480839FBF81E090E09E
:1006D000DF91CF911F910F91FF90EF900895F62E2B
:1006E0000B8D10E00F5F1F4F0F731127E02E8C8DC5
:1006F0008E110CC00FB607FCFACFE889F98980810A
:1007000085FFF5CFCE010E942603F1CFEB8DEC0FD4
:10071000FD2FF11DE35AFF4FF0829FB7F8940B8F26
:10072000EA89FB8980818062CFCFCF93DF93EC0190
:10073000888D8823B9F0AA89BB89E889F9898C91C9
:1007400085FD03C0808186FD0DC00FB607FCF7CF85
:100750008C9185FFF2CF808185FFEDCFCE010E9485
:100760002603E9CFDF91CF910895089590E080E0CE
:100770000895FB0101900020E9F73197AF01461B76
:10078000570BDC01ED91FC910280F381E02D09947F
:100790008F929F92AF92BF92EF92FF920F931F930F
:1007A000CF93DF93CDB7DEB7A1970FB6F894DEBF36
:1007B0000FBECDBF7C01FA01CB0119A2223008F493
:1007C0002AE08E010F5D1F4F822E912CB12CA12C9F
:1007D000BF01A50194010E94940BF901CA016A307E
:1007E0000CF5605DD8016E938D01232B242B252BF6
:1007F00079F790E080E0109721F0BD01C7010E94D9
:10080000B903A1960FB6F894DEBF0FBECDBFDF913E
:10081000CF911F910F91FF90EF90BF90AF909F905D
:100820008F900895695CDECF2F923F924F925F9236
:100830006F927F928F929F92AF92BF92CF92DF92F0
:10084000EF92FF921F93CF93DF93EC016A017B013C
:10085000722EAB019601CB01B6010E948F0B6EE1A7
:1008600071E0811126C046015701E894B7F82FEFD7
:100870003FEF4FE75FE7C501B4010E948F0B811185
:100880000CC02FEF3FEF4FE75FE7C501B4010E94B7
:10089000C50962E271E0181664F02FEF3FEF4FE7F1
:1008A0005FE4C701B6010E941D0B1816B4F466E29E
:1008B00071E0CE01DF91CF911F91FF90EF90DF901B
:1008C000CF90BF90AF909F908F907F906F905F90F0
:1008D0004F903F902F900C94B9032FEF3FEF4FE7CD
:1008E0005FECC701B6010E94C50987FDE0CF20E09B
:1008F00030E0A901C701B6010E94C509312C212CA5
:1009000087FF0DC0E881F9810190F081E02D6DE253
:10091000CE0109951C01F7FAF094F7F8F09410E075
:1009200060E070E080E09FE3711641F020E030E08D
:1009300040E251E40E94CA091F5FF6CFA701960169
:100940000E9459092B013C010E943C0A4B015C01A9
:100950002AE0BC01A401CE010E94C8037C01E20C84
:10096000F31C1123E1F1C501B4010E946B0A9B0144
:10097000AC01C301B2010E9458094B015C01E8813E
:10098000F9810190F081E02D6EE2CE010995E80E2B
:10099000F91E115020F120E030E040E251E4C501A1
:1009A000B4010E94220B2B013C010E943C0A4B0126
:1009B000B12CA12C2AE0B501A401CE010E94C803EC
:1009C000E80EF91EC501B4010E946B0A9B01AC013F
:1009D000C301B2010E9458094B015C01DACFC70183
:1009E000DF91CF911F91FF90EF90DF90CF90BF905C
:1009F000AF909F908F907F906F905F904F903F90BF
:100A00002F900895CF93DF93EC0160E08E810E94D8
:100A1000C40061E08E810E94C40060E08E810E946B
:100A2000C4008BE891E00197F1F7DF91CF91089531
:100A3000CF92DF92EF92FF920F931F93CF93DF93AA
:100A40006C017C0187E0E80EF11CD0E0C0E0062FCD
:100A500010E0B8010C2E02C0759567950A94E2F774
:100A60006170F70181917F010E94C4002196C4301A
:100A7000D10579F7C601DF91CF911F910F91FF90BA
:100A8000EF90DF90CF900C940205CF92DF92EF921F
:100A9000FF920F931F93CF93DF93EC01F62E642FF9
:100AA0008C810E94C4008D818F3F19F060E00E940C
:100AB000C4000F2D10E08F8584FF25C06E0187E0F4
:100AC000C80ED11CF12CE12CB8010E2C02C075957A
:100AD00067950A94E2F76170F60181916F010E94B7
:100AE000C400FFEFEF1AFF0A88E0E816F10461F78F
:100AF000CE01DF91CF911F910F91FF90EF90DF908A
:100B0000CF900C940205B80184E0759567958A959D
:100B1000E1F7CE010E9418056F2DCE01DF91CF9134
:100B20001F910F91FF90EF90DF90CF900C941805DC
:100B300040E0682F8BE292E00C94450581E00E9432
:100B400098058BE39FE10197F1F70895CF93DF9329
:100B5000823029F490913A02986090933A028093FF
:100B60003E0210923F0280E48093400280E1809335
:100B7000410280E58093420261E080912F020E9451
:100B80001001809130028F3F19F061E00E94100146
:100B900061E0809131020E941001CBE2D2E09E011F
:100BA0002B52324080913A0284FD0BC084E090E0E9
:100BB00021962817390744F461E08E810E941001C4
:100BC000EECF88E090E0F4CF8BE39DE00197F1F762
:100BD00060E080912F020E94C40060E080913102A9
:100BE0000E94C400809130028F3F19F060E00E94A3
:100BF000C40080913A0284FD34C063E08BE292E04D
:100C00000E941805CBE4D6E4CE010197F1F763E02A
:100C10008BE292E00E9418052197F1F763E08BE2E6
:100C200092E00E94180583E592E00197F1F762E0F7
:100C30008BE292E00E94180580913A0280620E9445
:100C4000980584E080933B028CE00E9498050E9406
:100C50009E0582E080933C0286E0DF91CF910C9468
:100C6000980580620E9498058BE496E40197F1F75D
:100C700080913A0280620E94980583E592E0019794
:100C8000F1F780913A0280620E949805D5CF41E049
:100C90000E94450581E090E008951F920F920FB6E3
:100CA0000F9211242F933F938F939F93AF93BF93F2
:100CB0008091770190917801A0917901B0917A01AA
:100CC0003091720123E0230F2D3758F50196A11DB5
:100CD000B11D209372018093770190937801A093C6
:100CE0007901B0937A018091730190917401A09180
:100CF0007501B09176010196A11DB11D809373011C
:100D000090937401A0937501B0937601BF91AF9158
:100D10009F918F913F912F910F900FBE0F901F9039
:100D2000189526E8230F0296A11DB11DD2CF1F9260
:100D30000F920FB60F9211242F933F934F935F930F
:100D40006F937F938F939F93AF93BF93EF93FF9393
:100D50008BE791E00E942603FF91EF91BF91AF9145
:100D60009F918F917F916F915F914F913F912F91C3
:100D70000F900FBE0F901F9018951F920F920FB6F5
:100D80000F9211242F938F939F93EF93FF93E091F2
:100D90008B01F0918C018081E0919101F0919201A1
:100DA00082FD1BC09081809194018F5F8F73209191
:100DB0009501821741F0E0919401F0E0E558FE4F73
:100DC000958F80939401FF91EF919F918F912F9137
:100DD0000F900FBE0F901F9018958081F4CFEBE716
:100DE000F1E01382128288EE93E0A0E0B0E0848309
:100DF0009583A683B78384E091E09183808385EC1B
:100E000090E09587848784EC90E09787868780ECD4
:100E100090E0918B808B81EC90E0938B828B82ECC5
:100E200090E0958B848B86EC90E0978B868B118E6F
:100E3000128E138E148EEBE2F2E01382128286E1A0
:100E400091E09183808382E084838FEF858383E0C8
:100E5000868384E0878385E0808786E0818787E0DA
:100E600082871386148615861686178681E00E946F
:100E7000A605A8E1B2E088E015968C9315978BE063
:100E800016968C931697E6EBF0E0E4911796EC93A8
:100E90001797E2EAF0E0E4911896EC93189740E88F
:100EA0005EE360E070E01D964D935D936D937C93DF
:100EB00050970895789484B5826084BD84B581602C
:100EC00084BD85B5826085BD85B5816085BD809115
:100ED0006E00816080936E0010928100809181008D
:100EE0008260809381008091810081608093810085
:100EF000809180008160809380008091B100846047
:100F00008093B1008091B00081608093B0008091A7
:100F10007A00846080937A0080917A008260809366
:100F20007A0080917A00816080937A0080917A00C3
:100F3000806880937A001092C100E0918B01F0915B
:100F40008C0182E08083E0918701F091880110821A
:100F5000E0918901F0918A018FEC808310929301D6
:100F6000E0918F01F091900186E08083E0918D0106
:100F7000F0918E01808180618083E0918D01F091FC
:100F80008E01808188608083E0918D01F0918E01D7
:100F9000808180688083E0918D01F0918E01808155
:100FA0008F7D808382E00E94A6056AE271E08BE279
:100FB00092E00E94B9036AE271E08BE791E00E943F
:100FC000B9036AE371E08BE791E00E94B90368EE30
:100FD00073E080E090E00E9466010E949E0562E05E
:100FE00080911D020E9410012FB7F8948091770123
:100FF00090917801A0917901B0917A012FBF805D25
:101000009740A109B1098093210290932202A093F5
:101010002302B093240287E380932A02C0E0D0E049
:101020000E949901882349F080911E028B3028F09C
:101030008D3040F085518230D0F160E070E080EC7E
:101040009FE71CC06091190270E090E080E00E9470
:101050006D0A2DEC3CEC4CEC5DE30E94220B6B0125
:101060007C016091180270E090E080E00E946D0ABF
:101070009B01AC01C701B6010E94590960936E0142
:1010800070936F0180937001909371010E94990198
:10109000882341F080911E028C3009F4E7C0C8F427
:1010A0008B3081F160E070E080EC9FE753C060918D
:1010B00018027091190276276727762790E080E062
:1010C0000E946B0A2DEC3CEC4CEC5DE30E94220B81
:1010D000D5CF8551823030F710911A02612F70E020
:1010E000762F662766277F7780911B02682B90E01A
:1010F00080E00E946B0A2DEC3CEC4CEC5DE30E941E
:10110000220BD0C060911A0270E090E080E00E9453
:101110006B0A6B017C0110911B0217FF0AC0AC0126
:101120009B0160E070E080E89FEB0E9458096B0132
:101130007C011F70612F70E090E080E00E946D0ADA
:101140002DEC3CEC4CEC5DE30E94220BA7019601D8
:101150000E94590960936A0170936B0180936C013E
:1011600090936D016DE371E08BE791E00E94B9030C
:1011700040916E0150916F01609170017091710109
:1011800022E08BE791E00E94140468E471E08BE7B1
:1011900091E00E94B9036CE471E08BE791E00E945A
:1011A000B90340916A0150916B0160916C0170919B
:1011B0006D0122E08BE791E00E9414046AE571E082
:1011C0008BE791E00E94B9036AE371E08BE791E05D
:1011D0000E94B90368EE73E080E090E00E9466012F
:1011E000E1E080913E028111E0E0E195F0E0E55D13
:1011F000FD4F848980680E9498056EE571E08BE25E
:1012000092E00E94B903E0913E02E23008F04EC045
:10121000E150F0E0E55DFD4F848980680E9498050B
:1012200040916E0150916F01609170017091710158
:1012300022E08BE292E00E94140468E671E08BE207
:1012400092E00E94B90368EE73E080E090E00E94B3
:1012500066010E949E05209709F4E2CE0E941203C7
:10126000882309F4DDCE0E940000DACE10911A0224
:10127000612F70E090E080E00E946B0A6B017C01BE
:1012800060911B026F7070E090E080E00E946D0A38
:101290002DEC3CEC4CEC5DE30E94220BA701960187
:1012A0000E94590917FF56CF905854CFE1E0B1CFB3
:1012B0005058BB27AA270E9470090C94E30A0E9489
:1012C000D50A38F00E94DC0A20F039F49F3F19F467
:1012D00026F40C94D20A0EF4E095E7FB0C94CC0AA9
:1012E000E92F0E94F40A58F3BA17620773078407BC
:1012F000950720F079F4A6F50C94160B0EF4E09502
:101300000B2EBA2FA02D0B01B90190010C01CA01BF
:10131000A0011124FF27591B99F0593F50F4503E6A
:1013200068F11A16F040A22F232F342F4427585F5C
:10133000F3CF469537952795A795F0405395C9F774
:101340007EF41F16BA0B620B730B840BBAF091502C
:10135000A1F0FF0FBB1F661F771F881FC2F70EC0CB
:10136000BA0F621F731F841F48F48795779567959E
:10137000B795F7959E3F08F0B0CF9395880F08F08A
:101380009927EE0F9795879508950E94A80A08F46B
:1013900081E008950E94DE090C94E30A0E94DC0AB1
:1013A00058F00E94D50A40F029F45F3F29F00C94D0
:1013B000CC0A51110C94170B0C94D20A0E94F40A17
:1013C00068F39923B1F3552391F3951B550BBB2774
:1013D000AA2762177307840738F09F5F5F4F220FB9
:1013E000331F441FAA1FA9F335D00E2E3AF0E0E8B0
:1013F00032D091505040E695001CCAF72BD0FE2FFA
:1014000029D0660F771F881FBB1F2617370748078D
:10141000AB07B0E809F0BB0B802DBF01FF27935845
:101420005F4F3AF09E3F510578F00C94CC0A0C9433
:10143000170B5F3FE4F3983ED4F386957795679555
:10144000B795F7959F5FC9F7880F911D969587957A
:1014500097F90895E1E0660F771F881FBB1F621799
:1014600073078407BA0720F0621B730B840BBA0B57
:10147000EE1F88F7E09508950E94FC0A88F09F57B8
:1014800098F0B92F9927B751B0F0E1F0660F771FA8
:10149000881F991F1AF0BA95C9F714C0B13091F09E
:1014A0000E94160BB1E008950C94160B672F782F4D
:1014B0008827B85F39F0B93FCCF386957795679563
:1014C000B395D9F73EF490958095709561957F4FCF
:1014D0008F4F9F4F0895E89409C097FB3EF4909575
:1014E0008095709561957F4F8F4F9F4F9923A9F0FD
:1014F000F92F96E9BB279395F6958795779567958C
:10150000B795F111F8CFFAF4BB0F11F460FF1BC0CF
:101510006F5F7F4F8F4F9F4F16C0882311F096E962
:1015200011C0772321F09EE8872F762F05C0662310
:1015300071F096E8862F70E060E02AF09A95660FC9
:10154000771F881FDAF7880F9695879597F9089582
:10155000990F0008550FAA0BE0E8FEEF16161706C4
:10156000E807F907C0F012161306E407F50798F02C
:10157000621B730B840B950B39F40A2661F0232B45
:10158000242B252B21F408950A2609F4A140A695C1
:101590008FEF811D811D089597F99F6780E870E0A6
:1015A00060E008959FEF80EC089500240A941616D9
:1015B000170618060906089500240A941216130641
:1015C000140605060895092E0394000C11F48823CF
:1015D00052F0BB0F40F4BF2B11F460FF04C06F5FEB
:1015E0007F4F8F4F9F4F089557FD9058440F551FC1
:1015F00059F05F3F71F04795880F97FB991F61F095
:101600009F3F79F087950895121613061406551F0B
:10161000F2CF4695F1DF08C0161617061806991F77
:10162000F1CF86957105610508940895E894BB276C
:1016300066277727CB0197F908950E94A80A08F436
:101640008FEF08950E94350B0C94E30A0E94D50A8F
:1016500038F00E94DC0A20F0952311F00C94CC0A9B
:101660000C94D20A11240C94170B0E94F40A70F304
:10167000959FC1F3950F50E0551F629FF001729F37
:10168000BB27F00DB11D639FAA27F00DB11DAA1F46
:10169000649F6627B00DA11D661F829F2227B00D93
:1016A000A11D621F739FB00DA11D621F839FA00D1E
:1016B000611D221F749F3327A00D611D231F849F6E
:1016C000600D211D822F762F6A2F11249F575040C5
:1016D0009AF0F1F088234AF0EE0FFF1FBB1F661F40
:1016E000771F881F91505040A9F79E3F510580F009
:1016F0000C94CC0A0C94170B5F3FE4F3983ED4F3A0
:10170000869577956795B795F795E7959F5FC1F7AC
:10171000FE2B880F911D9695879597F908950E9445
:10172000A80A880B990B0895A1E21A2EAA1BBB1BCD
:10173000FD010DC0AA1FBB1FEE1FFF1FA217B3079D
:10174000E407F50720F0A21BB30BE40BF50B661FB3
:10175000771F881F991F1A9469F760957095809577
:1017600090959B01AC01BD01CF010895EE0FFF1FC5
:0C1770000590F491E02D0994F894FFCF4F
:10177C00000000004803A802D50295030603E4020A
:10178C00F802000000004706A802B603B5036E611C
:10179C006E00696E66006F766600536D6172742020
:1017AC00506C616E7420312E30000D0A0048756D3E
:1017BC0069646974793A20002025090054656D70BC
:1017CC00657261747572653A2000202A4300487571
:0A17DC006D69646974793A00250014
:00000001FF
