:100000000C9462000C948A000C948A000C948A0070
:100010000C948A000C948A000C948A000C948A0038
:100020000C948A000C948A000C948A000C948A0028
:100030000C948A000C948A000C948A000C948A0018
:100040000C9415080C948A000C9485080C945F0895
:100050000C948A000C948A000C948A000C948A00F8
:100060000C94B7080C948A000000000024002700BC
:100070002A0000000000250028002B0000000008D6
:10008000000201000003040700000000000000005F
:1000900000000000230026002900040404040404D6
:1000A0000404020202020202030303030303010227
:1000B00004081020408001020408102001020408F6
:1000C0001020D60911241FBECFEFD8E0DEBFCDBF70
:1000D00012E0A0E0B1E0ECE6F0E202C005900D9283
:1000E000AE33B107D9F723E0AEE3B2E001C01D9211
:1000F000A73DB207E1F710E0C2E6D0E004C02197C7
:10010000FE010E942E10C136D107C9F70E943E0A97
:100110000C9434100C940000CF92DF92EF92FF9277
:10012000CF93DF93B091BF03A0E08111AB2F8091FB
:10013000C00390E0880F991FAC0140575F4FC090FB
:10014000C503D090C603E090C703F090C80330E029
:1001500020E0FA01C591D491E881B90190E080E0F6
:10016000EB23EA130AC02F5F3F4F6C157D058E0508
:100170009F0578F36FEF7FEFCB01DF91CF91FF9079
:10018000EF90DF90CF90089590E0FC01E458FF4F8E
:100190002491FC01E255FF4F3491FC01E656FF4FDC
:1001A000E491EE23C9F0222339F0233001F1A8F4C1
:1001B000213019F1223029F1F0E0EE0FFF1FEE5847
:1001C000FF4FA591B4918FB7F894EC91611126C0BF
:1001D00030953E233C938FBF08952730A9F02830F7
:1001E000C9F0243049F7809180008F7D03C0809151
:1001F00080008F7780938000DFCF84B58F7784BDB8
:10020000DBCF84B58F7DFBCF8091B0008F7780935B
:10021000B000D2CF8091B0008F7DF9CF3E2BDACFE6
:10022000CF93DF9390E0FC01E255FF4F2491865677
:100230009F4FFC0184918823D1F090E0880F991F93
:10024000FC01E859FF4FA591B491FC01EE58FF4F16
:10025000C591D491623071F49FB7F8943C91822F8C
:10026000809583238C93E8812E2B28839FBFDF9179
:10027000CF9108958FB7F894EC912E2B2C938FBFCC
:10028000F6CF8E50806480937C0080917A008064E9
:1002900080937A0080917A0086FDFCCF809178006F
:1002A0009091790008953FB7F89480910703909159
:1002B0000803A0910903B0910A0326B5A89B05C0C5
:1002C0002F3F19F00196A11DB11D3FBFBA2FA92FD5
:1002D000982F8827BC01CD01620F711D811D911DD2
:1002E00042E0660F771F881F991F4A95D1F708953E
:1002F0008F929F92AF92BF92CF92DF92EF92FF9236
:100300006B017C010E9453014B015C01C114D104BB
:10031000E104F104B9F00E945301681979098A09CE
:100320009B09683E73408105910580F321E0C21A64
:10033000D108E108F10888EE880E83E0981EA11C20
:10034000B11CE4CFFF90EF90DF90CF90BF90AF90C3
:100350009F908F900895CF92DF92EF92FF920F932C
:100360001F93CF93DF93CDB7DEB7C054D1400FB604
:10037000F894DEBF0FBECDBF2FB7F89480910B036A
:1003800090910C03A0910D03B0910E032FBF4091EB
:10039000C1035091C2036091C3037091C4038C01E7
:1003A0009D01041B150B260B370BB901A801403D1D
:1003B00057406105710590F48091C903C05CDE4F20
:1003C0000FB6F894DEBF0FBECDBFDF91CF911F9166
:1003D0000F91FF90EF90DF90CF9008958093C1032D
:1003E0009093C203A093C303B093C4031092BC03C1
:1003F0001092BB031092BA031092B9031092B80383
:1004000062E08091BD030E94100161E070E080E035
:1004100090E00E94780161E08091BD030E9410018C
:1004200060E08091BD030E94C4008091BE038551AD
:10043000823020F58BE291E10197F1F762E0809143
:10044000BD030E9410018091CA0390E082309105A3
:1004500038F0880F991F880F991F05970197F1F7BA
:10046000F89480E00E948C006F3F7F4F8F4F9F4F2A
:1004700061F41092C903789480E0A0CF64E170E049
:1004800080E090E00E947801D9CF81E00E948C004A
:100490006F3F7F4F8F4F9F4F61F38E010F5F1F4F55
:1004A0006E018FEBC81A8EEFD80A780180E00E94A7
:1004B0008C00F701608371838283938381E00E94C3
:1004C0008C00F7016483758386839783F8E0EF0ED1
:1004D000F11CEC14FD0451F7789430E020E0F801B1
:1004E000C080D180E280F38044815581668177812C
:1004F000FFEFCF16DF06EF06FF0631F04F3F8FEF1D
:1005000058076807780719F41092C903B5CFF901A5
:1005100083E0F595E7958A95E1F7E854FC4F8081F3
:10052000880FC416D506E606F70610F180832F5F04
:100530003F4F085F1F4F2832310589F64091BC03B9
:100540002091B8038091B903280F3327331F80917E
:10055000BA03280F311D8091BB03820F932F911D89
:1005600099274817190681F681E08093C90326CFA1
:100570008160DCCF08950895DC01ED91FC9101903C
:10058000F081E02D0994AF92BF92CF92DF92EF926B
:10059000FF920F931F93CF93DF936C017B018B012D
:1005A000040F151FEB015E01AE18BF08C017D1077D
:1005B00059F06991D601ED91FC910190F081E02D07
:1005C000C6010995892B79F7C501DF91CF911F915C
:1005D0000F91FF90EF90DF90CF90BF90AF90089574
:1005E000FC01538D448D252F30E0842F90E0821B39
:1005F000930B541710F0CF96089501970895FC01BE
:10060000918D828D981761F0A28DAE0FBF2FB11D15
:100610005D968C91928D9F5F9F73928F90E008956D
:100620008FEF9FEF0895FC01918D828D981731F027
:10063000828DE80FF11D858D90E008958FEF9FEF7B
:100640000895FC01918D228D892F90E0805C9F4F51
:10065000821B91098F73992708958FE093E00E9480
:10066000210321E0892B09F420E0822F089580E006
:1006700090E0892B29F00E942D0381110C94000039
:100680000895FC01A48DA80FB92FB11DA35ABF4F27
:100690002C91848D90E001968F739927848FA68981
:1006A000B7892C93A089B1898C91837080648C93D5
:1006B000938D848D981306C00288F389E02D808184
:1006C0008F7D80830895EF92FF920F931F93CF93B6
:1006D000DF93EC0181E0888F9B8D8C8D98131AC07D
:1006E000E889F989808185FF15C09FB7F894EE8964
:1006F000FF896083E889F9898081837080648083C1
:100700009FBF81E090E0DF91CF911F910F91FF900B
:10071000EF900895F62E0B8D10E00F5F1F4F0F73B3
:100720001127E02E8C8D8E110CC00FB607FCFACF6E
:10073000E889F989808185FFF5CFCE010E944103C8
:10074000F1CFEB8DEC0FFD2FF11DE35AFF4FF0823F
:100750009FB7F8940B8FEA89FB8980818062CFCFA5
:10076000CF93DF93EC01888D8823B9F0AA89BB89E8
:10077000E889F9898C9185FD03C0808186FD0DC0D3
:100780000FB607FCF7CF8C9185FFF2CF808185FFF4
:10079000EDCFCE010E944103E9CFDF91CF910895C3
:1007A000089520917F02260F3327331F2132310510
:1007B000ECF42091C802FC0190E080E0243069F064
:1007C00082E00895A0917F022191AC01415A5D4FD2
:1007D000A40FB52FB11D2C930196861798F3809125
:1007E0007F02680F60937F0280E0089581E00895A2
:1007F0001092C80281E08093C7021092A20261E0C9
:1008000082E10E94C40061E083E10E94C400E9EB40
:10081000F0E080818E7F808380818D7F808388E47B
:100820008093B80085E48093BC000895CF93DF9354
:1008300091E090935E028823B9F0C091B800D09106
:10084000BA008091BC008A7B8093BC0060E082E1AA
:100850000E94C40060E083E10E94C4000E94F8038B
:10086000D093BA00C093B800DF91CF910895089556
:10087000E091F7028091F602E81730F4F0E0E25CD4
:10088000FD4F808190E008958FEF9FEF0895909144
:10089000F7028091F6022FEF3FEF981748F4E92F07
:1008A000F0E0E25CFD4F208130E09F5F9093F70223
:1008B000C90108958091F6029091F702891B990B66
:1008C0000895CF92DF92EF92FF920F931F93CF93F1
:1008D000DF937C01CB018A012091CE02222389F093
:1008E000EB016B01C40ED51ECC15DD0569F06991D5
:1008F000D701ED91FC910190F081E02DC7010995A0
:10090000F3CF642F0E94D103C801DF91CF911F91D3
:100910000F91FF90EF90DF90CF900895CF93DF93EA
:100920001F92CDB7DEB769832091CE022223F9F062
:100930002091F402203258F021E030E0FC013383B2
:10094000228390E080E00F90DF91CF910895809115
:10095000F502E82FF0E0E153FD4F998190838F5F1E
:100960008093F5028093F40281E090E0ECCF61E0A7
:10097000CE0101960E94D103F7CFCF92DF92EF9282
:10098000FF920F931F93CF93DF93FC01C48121E06B
:100990002093CE02C093EF021092F5021092F4025F
:1009A0008385682B8CEA93E00E948E04D091F40238
:1009B000D13208F092C00E9453016B017C018091FA
:1009C000C802811165C082E08093C80281E08093F3
:1009D000C7028FEF8093C6021092C502D093C40263
:1009E000AFECB2E0E4EAF2E080E0D81385C0109208
:1009F000A3028091A302CC0FC82BC093A3028091C5
:100A0000A202813009F07CC01092A2020E94530120
:100A10006B017C018091A3028093BB008091CA028C
:100A20009091CB02A091CC02B091CD02892B8A2B60
:100A30008B2B99F00E9453010091CA021091CB02B6
:100A40002091CC023091CD026C197D098E099F094D
:100A50000617170728073907E0F18091BC0083FDCE
:100A6000D9CF85EC8093BC000E9453016B017C01BF
:100A70008091C802823009F445C08091C6028F3F40
:100A800061F18091C602803241F18091C60225C099
:100A90008091CA029091CB02A091CC02B091CD027C
:100AA000892B8A2B8B2B09F48ACF0E94530100914A
:100AB000CA021091CB022091CC023091CD026C1968
:100AC0007D098E099F09061717072807390708F0BF
:100AD00076CF8091C9020E9416041092F5021092FE
:100AE000F4021092CE02DF91CF911F910F91FF90EF
:100AF000EF90DF90CF9008959D9191938F5F75CF88
:100B000085EEB0CF8091CA029091CB02A091CC0229
:100B1000B091CD02892B8A2B8B2B09F4A9CF0E948F
:100B200053010091CA021091CB022091CC02309166
:100B3000CD026C197D098E099F0906171707280732
:100B4000390708F095CFC5CF90E080E008950F9366
:100B50001F93CF938C01C62F0E94BD046C2F64603D
:100B6000C8010E94BD046C2F6B7FC8010E94BD04A8
:100B700083EC90E00197F1F7CF911F910F910895C9
:100B80000F931F93CF93DF938C01D62FC42F607FD9
:100B9000642B0E94A70580E1D89FB00111246C2B23
:100BA000C801DF91CF911F910F910C94A70540E0F0
:100BB00061E08BEC93E00E94C0058BE39FE101971D
:100BC000F1F70895CF93DF93CDB7DEB728970FB62F
:100BD000F894DEBF0FBECDBF98E0E0E0F1E0DE01AB
:100BE000119601900D929A95E1F79091D303981781
:100BF00008F48FEF90E0880F991F21E030E02C0F70
:100C00003D1F820F931FFC016081606840E08BEC08
:100C100093E028960FB6F894DEBF0FBECDBFDF91EC
:100C2000CF910C94C00541E00E94C00581E090E0A6
:100C30000895FB0101900020E9F73197AF01461BB1
:100C4000570BDC01ED91FC910280F381E02D0994BA
:100C50008F929F92AF92BF92EF92FF920F931F934A
:100C6000CF93DF93CDB7DEB7A1970FB6F894DEBF71
:100C70000FBECDBF7C01FA01CB0119A2223008F4CE
:100C80002AE08E010F5D1F4F822E912CB12CA12CDA
:100C9000BF01A50194010E94BA0DF901CA016A3091
:100CA0000CF5605DD8016E938D01232B242B252B31
:100CB00079F790E080E0109721F0BD01C7010E9414
:100CC0001906A1960FB6F894DEBF0FBECDBFDF9117
:100CD000CF911F910F91FF90EF90BF90AF909F9099
:100CE0008F900895695CDECFCF92DF92EF92FF92F2
:100CF0000F931F93CF93DF936B01770FEE08FF08DD
:100D0000F7FE1BC0EC016DE20E94BC028C0144277F
:100D10005527BA014C195D096E097F092AE0CE01F9
:100D20000E942806800F911FDF91CF911F910F9194
:100D3000FF90EF90DF90CF9008952AE0B701A601D1
:100D4000DF91CF911F910F91FF90EF90DF90CF90A7
:100D50000C942806CF92DF92EF92FF92CF93DF930D
:100D60006C01990FEE08FF08F7FE23C06DE28FE0DB
:100D700093E00E94BC02EC0144275527BA014C19AC
:100D80005D096E097F092AE08FE093E00E94280642
:100D9000C80FD91F68E371E08FE093E00E94190645
:100DA0008C0F9D1FDF91CF91FF90EF90DF90CF9040
:100DB00008952AE0B701A6018FE093E00E9428067B
:100DC000EC01E8CFCF93DF93BC018FE093E00E946A
:100DD0001906EC0168E371E08FE093E00E941906C8
:100DE0008C0F9D1FDF91CF9108952F923F924F92CC
:100DF0005F926F927F928F929F92AF92BF92CF92AB
:100E0000DF92EF92FF921F93CF93DF93EC016A0181
:100E10007B01722EAB019601CB01B6010E9422101C
:100E20006BE371E0811126C046015701E894B7F8E1
:100E30002FEF3FEF4FE75FE7C501B4010E9422109B
:100E400081110CC02FEF3FEF4FE75FE7C501B40101
:100E50000E94580E6FE371E0181664F02FEF3FEF19
:100E60004FE75FE4C701B6010E94B00F1816B4F453
:100E700063E471E0CE01DF91CF911F91FF90EF907D
:100E8000DF90CF90BF90AF909F908F907F906F90AA
:100E90005F904F903F902F900C9419062FEF3FEFEB
:100EA0004FE75FECC701B6010E94580E87FDE0CF07
:100EB00020E030E0A901C701B6010E94580E312C94
:100EC000212C87FF09C06DE2CE010E94BC021C01EB
:100ED000F7FAF094F7F8F09410E060E070E080E04A
:100EE0009FE3711641F020E030E040E251E40E94BF
:100EF0005D0E1F5FF6CFA70196010E94EC0D2B013E
:100F00003C010E94CF0E4B015C012AE0BC01A40110
:100F1000CE010E9428067C01E20CF31C1123C1F1D2
:100F2000C501B4010E94FE0E9B01AC01C301B201D8
:100F30000E94EB0D4B015C016EE2CE010E94BC02EF
:100F4000E80EF91E115020F120E030E040E251E4BB
:100F5000C501B4010E94B50F2B013C010E94CF0EC8
:100F60004B01B12CA12C2AE0B501A401CE010E94B5
:100F70002806E80EF91EC501B4010E94FE0E9B0171
:100F8000AC01C301B2010E94EB0D4B015C01DACF51
:100F9000C701DF91CF911F91FF90EF90DF90CF902D
:100FA000BF90AF909F908F907F906F905F904F9089
:100FB0003F902F9008950C94190685ED8093BC0006
:100FC0008091CA029091CB02A091CC02B091CD0247
:100FD0000796A11DB11D23E0B695A7959795879516
:100FE0002A95D1F72091BC0024FD03C01092C802BD
:100FF00008954091CA025091CB026091CC02709149
:10100000CD02452B462B472B69F30097A105B1056F
:1010100041F02AE22A95F1F700C00197A109B10930
:10102000E1CF8091C9020C9416041F920F920FB663
:101030000F9211242F933F938F939F93AF93BF935E
:1010400080910B0390910C03A0910D03B0910E03BE
:101050003091060323E0230F2D3758F50196A11D8B
:10106000B11D2093060380930B0390930C03A09370
:101070000D03B0930E038091070390910803A09194
:101080000903B0910A030196A11DB11D80930703C6
:1010900090930803A0930903B0930A03BF91AF9103
:1010A0009F918F913F912F910F900FBE0F901F90A6
:1010B000189526E8230F0296A11DB11DD2CF1F92CD
:1010C0000F920FB60F9211242F933F934F935F937C
:1010D0006F937F938F939F93AF93BF93EF93FF9300
:1010E0008FE093E00E944103FF91EF91BF91AF9198
:1010F0009F918F917F916F915F914F913F912F9130
:101100000F900FBE0F901F9018951F920F920FB661
:101110000F9211242F938F939F93EF93FF93E0915E
:101120001F03F09120038081E0912503F0912603B5
:1011300082FD1BC09081809128038F5F8F73209167
:101140002903821741F0E0912803F0E0E15FFC4FB2
:10115000958F80932803FF91EF919F918F912F910D
:101160000F900FBE0F901F9018958081F4CF1F92A3
:101170000F920FB60F9211242F933F934F935F93CB
:101180006F937F938F939F93AF93BF93EF93FF934F
:101190008091B900887F803609F44AC0F0F5883222
:1011A00009F4A7C018F5803109F49BC0B8F488236E
:1011B00009F4F9C0883009F494C0FF91EF91BF9110
:1011C000AF919F918F917F916F915F914F913F91DF
:1011D0002F910F900FBE0F901F901895883109F432
:1011E00088C0803251F78093C60214C0803409F45D
:1011F0009DC040F48033B9F38833F9F68093C6027A
:1012000085ECB0C0803509F485C0883509F496C0F6
:10121000883499F60E94DD07D0CF883909F48CC054
:1012200038F5883729F050F4883611F0803729F6E0
:1012300083E08093C8021092A10257C0883809F455
:101240007BC0803919F0803809F0B7CF8091A102B6
:10125000803208F071C0E091A10281E08E0F80938E
:10126000A1028091BB00F0E0EF57FD4F80833DC0AD
:10127000803B39F0E0F4803A09F479C0883A09F00B
:101280009CCF84E08093C8021092800210927F026B
:10129000E091F202F091F302099580917F028111B1
:1012A0000FC081E080937F0210925F0209C0803CF2
:1012B00009F4A6CF883C09F4A3CF883B09F07DCF81
:1012C000E091800281E08E0F80938002F0E0E15A8D
:1012D000FD4F80818093BB009091800280917F02BE
:1012E00029C08091A3028093BB0085EC8093BC0051
:1012F00064CF9091C5028091C402981758F5E0918F
:10130000C50281E08E0F8093C502F0E0EC55FD4FE1
:101310008081E9CFE091C50281E08E0F8093C50204
:101320008091BB00F0E0EC55FD4F80839091C502A9
:101330008091C4029817C8F285E8D8CFE091C50221
:1013400081E08E0F8093C5028091BB00F0E0EC55E8
:10135000FD4F80838091C70281115CCF81E0809333
:10136000A20284EA8093BC001092C80226CF85ECCA
:101370008093BC001092C8028091A102803230F4A8
:10138000E091A102F0E0EF57FD4F10826091A102C1
:1013900070E0E091F002F091F10281E892E00995AD
:1013A0001092A1020ACF1092C60234CFEFE0F3E010
:1013B0001382128288EE93E0A0E0B0E084839583EC
:1013C000A683B7832CE031E03183208325EC30E025
:1013D0003587248724EC30E03787268720EC30E0FF
:1013E000318B208B21EC30E0338B228B22EC30E0F0
:1013F000358B248B26EC30E0378B268B118E128EAA
:10140000138E148EECEAF3E01382128284839583A8
:10141000A683B7838EE191E091838083EBECF3E0C8
:101420001382128280E391E09183808380E284833F
:1014300080E1818782E082871386A8EBB3E088E0B1
:1014400015968C9315978BE016968C931697E6EB72
:10145000F0E0E4911796EC931797E2EAF0E0E4915C
:101460001896EC93189740E85EE360E070E01D96F4
:101470004D935D936D937C9350970895789484B5C4
:10148000826084BD84B5816084BD85B5826085BD80
:1014900085B5816085BD80916E00816080936E000E
:1014A0001092810080918100826080938100809100
:1014B00081008160809381008091800081608093B1
:1014C00080008091B10084608093B1008091B00071
:1014D00081608093B00080917A00846080937A006C
:1014E00080917A00826080937A0080917A00816096
:1014F00080937A0080917A00806880937A001092BD
:10150000C100E0911F03F091200382E08083E0910D
:101510001B03F0911C031082E0911D03F0911E0348
:101520008FEC808310922703E0912303F091240332
:1015300086E08083E0912103F09122038081806125
:101540008083E0912103F091220380818860808371
:10155000E0912103F0912203808180688083E091F3
:101560002103F091220380818F7D80831092F70206
:101570001092F6021092F5021092F4020E94F80303
:101580008AEB92E09093F3028093F2028BEB92E06D
:101590009093F1028093F0021092D0038091D503D2
:1015A000823018F098E09093D0038093D30362E3E5
:1015B00070E080E090E00E9478016091D6038BECAF
:1015C00093E00E94BD0468EE73E080E090E00E942A
:1015D000780160E38BEC93E00E94A705CBE4D6E4AE
:1015E000CE010197F1F760E38BEC93E00E94A70531
:1015F0002197F1F760E38BEC93E00E94A70583E568
:1016000092E00197F1F760E28BEC93E00E94A7056E
:101610006091D003606240E08BEC93E00E94C005D3
:1016200084E08093D10340E06CE08BEC93E00E9477
:10163000C0050E94D70582E08093D20340E066E0B7
:101640008BEC93E00E94C00540E062E08BEC93E0FD
:101650000E94C0058BE39FE10197F1F788E080933A
:10166000D60360E08BEC93E00E94BD0480E00E9412
:10167000E20567E471E08BEC93E00E94DB0781E018
:101680000E94E2056BE671E08BEC93E00E94DB07C1
:1016900082E591E00E94E20680E691E00E94E20687
:1016A00082E591E00E94E20668EE73E080E090E05F
:1016B0000E9478010E94D70562E08091BD030E94DC
:1016C00010012FB7F89480910B0390910C03A09117
:1016D0000D03B0910E032FBF805D9740A109B109A2
:1016E0008093C1039093C203A093C303B093C40338
:1016F00087E38093CA039BEFC92E93E0D92EE12C98
:10170000F12CC0E0D0E08BE691E00E94E2060E945E
:10171000AB01882349F08091BE038B3028F08D30D7
:1017200040F085518230D0F160E070E080EC9FE7BE
:101730001CC06091B90370E090E080E00E94000F4F
:101740002DEC3CEC4CEC5DE30E94B50F4B015C01D1
:101750006091B80370E090E080E00E94000F9B0170
:10176000AC01C501B4010E94EC0D609302037093BB
:10177000030380930403909305030E94AB01882325
:1017800041F08091BE038C3009F4A3C1C8F48B30C2
:1017900081F160E070E080EC9FE753C06091B80396
:1017A0007091B90376276727762790E080E00E9442
:1017B000FE0E2DEC3CEC4CEC5DE30E94B50FD5CF5A
:1017C0008551823030F71091BA03612F70E0762F87
:1017D000662766277F778091BB03682B90E080E0C7
:1017E0000E94FE0E2DEC3CEC4CEC5DE30E94B50F2C
:1017F0008CC16091BA0370E090E080E00E94FE0E20
:101800004B015C011091BB0317FF0AC0AC019B01A7
:1018100060E070E080E89FEB0E94EB0D4B015C0103
:101820001F70612F70E090E080E00E94000F2DECAF
:101830003CEC4CEC5DE30E94B50FA50194010E94C5
:10184000EC0D6093FE027093FF028093000390936F
:1018500001038EE00E9441019093FD028093FC02FF
:101860008FE00E9441019093FB028093FA0224E6EC
:1018700030E0DC010E942710A70196010E949B0D19
:101880003093F9022093F8026BE771E08FE093E068
:101890000E94DB074091020350910303609104030F
:1018A0007091050322E08FE093E00E94F5068AE83C
:1018B00091E00E94E2066EE871E08FE093E00E9402
:1018C000DB074091FE025091FF026091000370918E
:1018D000010322E08FE093E00E94F5068CE991E09D
:1018E0000E94E20660EA71E08FE093E00E94DB076D
:1018F0008091FC029091FD020E94AA068091FC0258
:101900009091FD02843F91400CF403C181EB91E082
:101910000E94E20665ED71E08FE093E00E94DB0734
:101920008091FA029091FB020E94AA066AEE71E091
:101930008FE093E00E94DB076091F8027091F9025A
:101940008FE093E00E9474068AEF91E00E94E20625
:1019500082E591E00E94E20668EE73E080E090E0AC
:101960000E94780180E00E94E2056BE671E08BEC5A
:1019700093E00E94DB0781E00E94E2056CEF71E0DA
:101980008BEC93E00E94DB0768EE73E080E090E070
:101990000E9478010E94D70580E00E94E2056CE079
:1019A00072E08BEC93E00E94DB0781E00E94E2058D
:1019B0004091020350910303609104037091050369
:1019C00022E08BEC93E00E94F5066AEF71E08BEC6D
:1019D00093E00E94DB0768EE73E080E090E00E94F5
:1019E00078010E94D70580E00E94E2056AE172E07A
:1019F0008BEC93E00E94DB0781E00E94E2054091BE
:101A0000FE025091FF02609100037091010322E0F9
:101A10008BEC93E00E94F5066DE971E08BEC93E0AE
:101A20000E94DB0768EE73E080E090E00E9478019E
:101A30000E94D7058091FC029091FD02843F914065
:101A40000CF46AC080E00E94E20567E272E08BEC71
:101A500093E00E94DB0781E00E94E20568EB71E001
:101A60008BEC93E00E94DB0768EE73E080E090E08F
:101A70000E9478010E94D70580E00E94E2056EE294
:101A800072E08BEC93E00E94DB0781E00E94E205AC
:101A90006091F8027091F9028BEC93E00E94740659
:101AA0006AEF71E08BEC93E00E94DB0768EE73E075
:101AB00080E090E00E9478010E94D705209709F409
:101AC00022CE0E942D03882309F41DCE0E9400001F
:101AD0001ACE1091BA03612F70E090E080E00E946E
:101AE000FE0E4B015C016091BB036F7070E090E0F3
:101AF00080E00E94000F2DEC3CEC4CEC5DE30E947A
:101B0000B50FA50194010E94EC0D17FF9ACE9058D5
:101B100098CE82EC91E0FCCE80E00E94E20567E284
:101B200072E08BEC93E00E94DB0781E00E94E2050B
:101B300069EC71E095CF052E97FB1EF400940E948E
:101B4000B20D57FD07D00E94BA0D07FC03D04EF42A
:101B50000C94B20D50954095309521953F4F4F4FC5
:101B60005F4F089590958095709561957F4F8F4F49
:101B70009F4F0895A1E21A2EAA1BBB1BFD010DC0A9
:101B8000AA1FBB1FEE1FFF1FA217B307E407F5072D
:101B900020F0A21BB30BE40BF50B661F771F881F09
:101BA000991F1A9469F760957095809590959B019F
:101BB000AC01BD01CF010895A29FB001B39FC00148
:101BC000A39F700D811D1124911DB29F700D811D69
:101BD0001124911D08955058BB27AA270E94030E77
:101BE0000C94760F0E94680F38F00E946F0F20F05F
:101BF00039F49F3F19F426F40C94650F0EF4E09528
:101C0000E7FB0C945F0FE92F0E94870F58F3BA1778
:101C1000620773078407950720F079F4A6F50C9402
:101C2000A90F0EF4E0950B2EBA2FA02D0B01B901D0
:101C300090010C01CA01A0011124FF27591B99F042
:101C4000593F50F4503E68F11A16F040A22F232F4E
:101C5000342F4427585FF3CF469537952795A7959E
:101C6000F0405395C9F77EF41F16BA0B620B730B45
:101C7000840BBAF09150A1F0FF0FBB1F661F771FB6
:101C8000881FC2F70EC0BA0F621F731F841F48F46B
:101C9000879577956795B795F7959E3F08F0B0CFF4
:101CA0009395880F08F09927EE0F979587950895DB
:101CB0000E943B0F08F481E008950E94710E0C947D
:101CC000760F0E946F0F58F00E94680F40F029F4C1
:101CD0005F3F29F00C945F0F51110C94AA0F0C94E4
:101CE000650F0E94870F68F39923B1F3552391F391
:101CF000951B550BBB27AA2762177307840738F07B
:101D00009F5F5F4F220F331F441FAA1FA9F335D0D7
:101D10000E2E3AF0E0E832D091505040E695001C8B
:101D2000CAF72BD0FE2F29D0660F771F881FBB1F45
:101D3000261737074807AB07B0E809F0BB0B802D23
:101D4000BF01FF2793585F4F3AF09E3F510578F04F
:101D50000C945F0F0C94AA0F5F3FE4F3983ED4F30A
:101D6000869577956795B795F7959F5FC9F7880F23
:101D7000911D9695879597F90895E1E0660F771F75
:101D8000881FBB1F621773078407BA0720F0621B06
:101D9000730B840BBA0BEE1F88F7E09508950E9431
:101DA0008F0F88F09F5798F0B92F9927B751B0F04F
:101DB000E1F0660F771F881F991F1AF0BA95C9F7CF
:101DC00014C0B13091F00E94A90FB1E008950C94B5
:101DD000A90F672F782F8827B85F39F0B93FCCF368
:101DE000869577956795B395D9F73EF4909580954C
:101DF000709561957F4F8F4F9F4F0895E89409C06C
:101E000097FB3EF490958095709561957F4F8F4F2D
:101E10009F4F9923A9F0F92F96E9BB279395F69543
:101E2000879577956795B795F111F8CFFAF4BB0FC1
:101E300011F460FF1BC06F5F7F4F8F4F9F4F16C025
:101E4000882311F096E911C0772321F09EE8872FAF
:101E5000762F05C0662371F096E8862F70E060E06B
:101E60002AF09A95660F771F881FDAF7880F9695E4
:101E7000879597F90895990F0008550FAA0BE0E888
:101E8000FEEF16161706E807F907C0F0121613063C
:101E9000E407F50798F0621B730B840B950B39F47C
:101EA0000A2661F0232B242B252B21F408950A26E2
:101EB00009F4A140A6958FEF811D811D089597F922
:101EC0009F6780E870E060E008959FEF80EC0895E0
:101ED00000240A9416161706180609060895002409
:101EE0000A9412161306140605060895092E039483
:101EF000000C11F4882352F0BB0F40F4BF2B11F4F7
:101F000060FF04C06F5F7F4F8F4F9F4F089557FD55
:101F10009058440F551F59F05F3F71F04795880F57
:101F200097FB991F61F09F3F79F0879508951216EE
:101F300013061406551FF2CF4695F1DF08C016169A
:101F400017061806991FF1CF86957105610508944B
:101F50000895E894BB2766277727CB0197F9089562
:101F60000E943B0F08F48FEF08950E94C80F0C9455
:101F7000760F0E94680F38F00E946F0F20F09523B3
:101F800011F00C945F0F0C94650F11240C94AA0FA0
:101F90000E94870F70F3959FC1F3950F50E0551F76
:101FA000629FF001729FBB27F00DB11D639FAA27AE
:101FB000F00DB11DAA1F649F6627B00DA11D661FFD
:101FC000829F2227B00DA11D621F739FB00DA11D1E
:101FD000621F839FA00D611D221F749F3327A00DD8
:101FE000611D231F849F600D211D822F762F6A2F74
:101FF00011249F5750409AF0F1F088234AF0EE0FD9
:10200000FF1FBB1F661F771F881F91505040A9F705
:102010009E3F510580F00C945F0F0C94AA0F5F3F18
:10202000E4F3983ED4F3869577956795B795F79541
:10203000E7959F5FC1F7FE2B880F911D96958795B9
:1020400097F908950E943B0F880B990B08950E9401
:10205000DC0DB7FF0895821B930B0895EE0FFF1F51
:0C2060000590F491E02D0994F894FFCF56
:10206C000000400014005400000000006303C30291
:10207C00F002B0032103FF021303000000008E04E2
:10208C006104A40537045A04470438040000000016
:10209C001306C302A405D0030D0A006E616E00691D
:1020AC006E66006F76660057656C636F6D652074A5
:1020BC006F002A2A2A2A2A2A2A2A2A2A2A2A2A0083
:1020CC0057656C636F6D6520746F20536D6172740E
:1020DC0020506C616E7420312E30004169722048A2
:1020EC00756D69646974793A20002025090054657E
:1020FC006D70657261747572653A2000202A430018
:10210C00526177206C6967687456616C75653A200A
:10211C00004C696768743A204461792054696D6594
:10212C002E004C696768743A204E696768742054B5
:10213C00696D652E00526177204D6F6973747572ED
:10214C00652056616C75653A2000536F696C204DA3
:10215C006F6973747572653A20002500526561646D
:10216C00696E672073656E736F72730041697220BC
:10217C0048756D69646974793A0054656D7065725F
:10218C0061747572653A004C696768743A00536FF4
:0E219C00696C204D6F6973747572653A0000AE
:00000001FF
