:100000000C9462000C948A000C948A000C948A0070
:100010000C948A000C948A000C948A000C948A0038
:100020000C948A000C948A000C948A000C948A0028
:100030000C948A000C948A000C948A000C948A0018
:100040000C94A8060C948A000C9418070C94F206E1
:100050000C948A000C948A000C948A000C948A00F8
:100060000C948A000C948A000000000024002700F1
:100070002A0000000000250028002B0000000008D6
:10008000000201000003040700000000000000005F
:1000900000000000230026002900040404040404D6
:1000A0000404020202020202030303030303010227
:1000B00004081020408001020408102001020408F6
:1000C00010204A0711241FBECFEFD8E0DEBFCDBFFE
:1000D00011E0A0E0B1E0E8E1F9E102C005900D9285
:1000E000A03BB107D9F722E0A0EBB1E001C01D921F
:1000F000AB38B207E1F710E0C2E6D0E004C02197C8
:10010000FE010E94840CC136D107C9F70E94B507D1
:100110000C948A0C0C940000CF92DF92EF92FF9225
:10012000CF93DF93B0916702A0E08111AB2F809154
:10013000680290E0880F991FAC0140575F4FC09054
:100140006D02D0906E02E0906F02F090700230E08D
:1001500020E0FA01C591D491E881B90190E080E0F6
:10016000EB23EA130AC02F5F3F4F6C157D058E0508
:100170009F0578F36FEF7FEFCB01DF91CF91FF9079
:10018000EF90DF90CF90089590E0FC01E458FF4F8E
:100190002491FC01E255FF4F3491FC01E656FF4FDC
:1001A000E491EE23C9F0222339F0233001F1A8F4C1
:1001B000213019F1223029F1F0E0EE0FFF1FEE5847
:1001C000FF4FA591B4918FB7F894EC91611126C0BF
:1001D00030953E233C938FBF08952730A9F02830F7
:1001E000C9F0243049F7809180008F7D03C0809151
:1001F00080008F7780938000DFCF84B58F7784BDB8
:10020000DBCF84B58F7DFBCF8091B0008F7780935B
:10021000B000D2CF8091B0008F7DF9CF3E2BDACFE6
:10022000CF93DF9390E0FC01E255FF4F2491865677
:100230009F4FFC0184918823D1F090E0880F991F93
:10024000FC01E859FF4FA591B491FC01EE58FF4F16
:10025000C591D491623071F49FB7F8943C91822F8C
:10026000809583238C93E8812E2B28839FBFDF9179
:10027000CF9108958FB7F894EC912E2B2C938FBFCC
:10028000F6CF3FB7F8948091BB019091BC01A0914B
:10029000BD01B091BE0126B5A89B05C02F3F19F046
:1002A0000196A11DB11D3FBFBA2FA92F982F8827F6
:1002B000BC01CD01620F711D811D911D42E0660FD1
:1002C000771F881F991F4A95D1F708958F929F92A3
:1002D000AF92BF92CF92DF92EF92FF926B017C01BF
:1002E0000E9441014B015C01C114D104E104F104FD
:1002F000B9F00E944101681979098A099B09683E91
:1003000073408105910580F321E0C21AD108E1080C
:10031000F10888EE880E83E0981EA11CB11CE4CF82
:10032000FF90EF90DF90CF90BF90AF909F908F9015
:100330000895CF92DF92EF92FF920F931F93CF9386
:10034000DF93CDB7DEB7C054D1400FB6F894DEBF0F
:100350000FBECDBF2FB7F8948091BF019091C0011F
:10036000A091C101B091C2012FBF4091690250918B
:100370006A0260916B0270916C028C019D01041BFA
:10038000150B260B370BB901A801403D57406105FD
:10039000710590F480917102C05CDE4F0FB6F89445
:1003A000DEBF0FBECDBFDF91CF911F910F91FF90A8
:1003B000EF90DF90CF9008958093690290936A0246
:1003C000A0936B02B0936C021092640210926302CD
:1003D00010926202109261021092600262E08091BB
:1003E00065020E94100161E070E080E090E00E94F0
:1003F000660161E0809165020E94100160E08091D9
:1004000065020E94C400809166028551823020F509
:100410008BE291E10197F1F762E0809165020E9421
:1004200010018091720290E08230910538F0880FBF
:10043000991F880F991F05970197F1F7F89480E0AD
:100440000E948C006F3F7F4F8F4F9F4F61F410923F
:100450007102789480E0A0CF64E170E080E090E0E9
:100460000E946601D9CF81E00E948C006F3F7F4FD0
:100470008F4F9F4F61F38E010F5F1F4F6E018FEB08
:10048000C81A8EEFD80A780180E00E948C00F7012C
:10049000608371838283938381E00E948C00F701E3
:1004A0006483758386839783F8E0EF0EF11CEC1468
:1004B000FD0451F7789430E020E0F801C080D1804D
:1004C000E280F3804481558166817781FFEFCF160A
:1004D000DF06EF06FF0631F04F3F8FEF5807680742
:1004E000780719F410927102B5CFF90183E0F59500
:1004F000E7958A95E1F7E05AFD4F8081880FC41691
:10050000D506E606F70610F180832F5F3F4F085FA0
:100510001F4F2832310589F6409164022091600214
:1005200080916102280F3327331F80916202280FC8
:10053000311D80916302820F932F911D99274817D7
:10054000190681F681E08093710226CF8160DCCFAD
:10055000AF92BF92CF92DF92EF92FF920F931F93D1
:10056000CF93DF936C017B018B01040F151FEB010F
:100570005E01AE18BF08C017D10759F06991D601C6
:10058000ED91FC910190F081E02DC6010995892B38
:1005900079F7C501DF91CF911F910F91FF90EF90F7
:1005A000DF90CF90BF90AF900895FC01538D448DA4
:1005B000252F30E0842F90E0821B930B541710F00E
:1005C000CF96089501970895FC01918D828D98171B
:1005D00061F0A28DAE0FBF2FB11D5D968C91928DF3
:1005E0009F5F9F73928F90E008958FEF9FEF089524
:1005F000FC01918D828D981731F0828DE80FF11DED
:10060000858D90E008958FEF9FEF0895FC01918D07
:10061000228D892F90E0805C9F4F821B91098F7300
:100620009927089583EC91E00E94060321E0892B2D
:1006300009F420E0822F089580E090E0892B29F0D2
:100640000E94120381110C9400000895FC01A48DF6
:10065000A80FB92FB11DA35ABF4F2C91848D90E0E4
:1006600001968F739927848FA689B7892C93A089C7
:10067000B1898C91837080648C93938D848D981351
:1006800006C00288F389E02D80818F7D80830895E4
:10069000EF92FF920F931F93CF93DF93EC0181E0D2
:1006A000888F9B8D8C8D98131AC0E889F989808179
:1006B00085FF15C09FB7F894EE89FF896083E889AC
:1006C000F98980818370806480839FBF81E090E09E
:1006D000DF91CF911F910F91FF90EF900895F62E2B
:1006E0000B8D10E00F5F1F4F0F731127E02E8C8DC5
:1006F0008E110CC00FB607FCFACFE889F98980810A
:1007000085FFF5CFCE010E942603F1CFEB8DEC0FD4
:10071000FD2FF11DE35AFF4FF0829FB7F8940B8F26
:10072000EA89FB8980818062CFCFCF93DF93EC0190
:10073000888D8823B9F0AA89BB89E889F9898C91C9
:1007400085FD03C0808186FD0DC00FB607FCF7CF85
:100750008C9185FFF2CF808185FFEDCFCE010E9485
:100760002603E9CFDF91CF910895089590E080E0CE
:100770000895CF93DF93EC0160E08E810E94C40066
:1007800061E08E810E94C40060E08E810E94C400FE
:100790008BE891E00197F1F7DF91CF910895CF9227
:1007A000DF92EF92FF920F931F93CF93DF936C0131
:1007B0007C0187E0E80EF11CD0E0C0E0062F10E0DD
:1007C000B8010C2E02C0759567950A94E2F7617026
:1007D000F70181917F010E94C4002196C430D105A8
:1007E00079F7C601DF91CF911F910F91FF90EF90A4
:1007F000DF90CF900C94B903CF92DF92EF92FF92EB
:100800000F931F93CF93DF93EC01F62E642F8C810F
:100810000E94C4008D818F3F19F060E00E94C400E7
:100820000F2D10E08F8584FF25C06E0187E0C80E74
:10083000D11CF12CE12CB8010E2C02C075956795E6
:100840000A94E2F76170F60181916F010E94C40081
:10085000FFEFEF1AFF0A88E0E816F10461F7CE0116
:10086000DF91CF911F910F91FF90EF90DF90CF908C
:100870000C94B903B80184E0759567958A95E1F702
:10088000CE010E94CF036F2DCE01DF91CF911F913A
:100890000F91FF90EF90DF90CF900C94CF0340E04A
:1008A000682F83E792E00C94FC0381E00E944F04E0
:1008B0008BE39FE10197F1F70895CF93DF938230A7
:1008C00029F490918202986090938202809386022C
:1008D0001092870280E48093880280E180938902ED
:1008E00080E580938A0261E0809177020E94100186
:1008F000809178028F3F19F061E00E94100161E061
:10090000809179020E941001C3E7D2E09E01235733
:1009100032408091820284FD0BC084E090E02196F9
:100920002817390744F461E08E810E941001EECF50
:1009300088E090E0F4CF8BE39DE00197F1F760E071
:10094000809177020E94C40060E0809179020E9449
:10095000C400809178028F3F19F060E00E94C400CB
:100960008091820284FD34C063E083E792E00E94BC
:10097000CF03CBE4D6E4CE010197F1F763E083E740
:1009800092E00E94CF032197F1F763E083E792E0C2
:100990000E94CF0383E592E00197F1F762E083E7DD
:1009A00092E00E94CF038091820280620E944F04F5
:1009B00084E0809383028CE00E944F040E945504DF
:1009C00082E08093840286E0DF91CF910C944F0403
:1009D00080620E944F048BE496E40197F1F78091C6
:1009E000820280620E944F0483E592E00197F1F752
:1009F0008091820280620E944F04D5CF909186023E
:100A0000891710F08FEF890FE82FF0E0ED58FD4FB8
:100A1000848980680C944F0441E00E94FC0381E0CB
:100A200090E00895FB0101900020E9F73197AF01B4
:100A3000461B570BDC01ED91FC910280F381E02D08
:100A400009948F929F92AF92BF92EF92FF920F9371
:100A50001F93CF93DF93CDB7DEB7A1970FB6F8946E
:100A6000DEBF0FBECDBF7C01FA01CB0119A222303F
:100A700008F42AE08E010F5D1F4F822E912CB12CBD
:100A8000A12CBF01A50194010E94620CF901CA01C9
:100A90006A300CF5605DD8016E938D01232B242BF9
:100AA000252B79F790E080E0109721F0BD01C70178
:100AB0000E941205A1960FB6F894DEBF0FBECDBFFF
:100AC000DF91CF911F910F91FF90EF90BF90AF906A
:100AD0009F908F900895695CDECFCF92DF92EF9266
:100AE000FF92CF93DF936C01990FEE08FF08F7FE9A
:100AF00023C06DE283EC91E00E944803EC0144279F
:100B00005527BA014C195D096E097F092AE083EC6B
:100B100091E00E942105C80FD91F6EE171E083ECBE
:100B200091E00E9412058C0F9D1FDF91CF91FF90E5
:100B3000EF90DF90CF9008952AE0B701A60183ECF3
:100B400091E00E942105EC01E8CFCF93DF93BC0137
:100B500083EC91E00E941205EC016EE171E083EC00
:100B600091E00E9412058C0F9D1FDF91CF91089597
:100B70002F923F924F925F926F927F928F929F92AD
:100B8000AF92BF92CF92DF92EF92FF921F93CF93DB
:100B9000DF93EC016A017B01722EAB019601CB0160
:100BA000B6010E945D0C61E271E0811126C0460130
:100BB0005701E894B7F82FEF3FEF4FE75FE7C50124
:100BC000B4010E945D0C81110CC02FEF3FEF4FE785
:100BD0005FE7C501B4010E94930A65E271E018164F
:100BE00064F02FEF3FEF4FE75FE4C701B6010E94CB
:100BF000EB0B1816B4F469E271E0CE01DF91CF91EE
:100C00001F91FF90EF90DF90CF90BF90AF909F909B
:100C10008F907F906F905F904F903F902F900C94AB
:100C200012052FEF3FEF4FE75FECC701B6010E94BF
:100C3000930A87FDE0CF20E030E0A901C701B601AB
:100C40000E94930A312C212C87FF0DC0E881F98185
:100C50000190F081E02D6DE2CE0109951C01F7FABB
:100C6000F094F7F8F09410E060E070E080E09FE32B
:100C7000711641F020E030E040E251E40E94980A11
:100C80001F5FF6CFA70196010E94270A2B013C01A6
:100C90000E940A0B4B015C012AE0BC01A401CE01B9
:100CA0000E9421057C01E20CF31C1123E1F1C50136
:100CB000B4010E94390B9B01AC01C301B2010E9437
:100CC000260A4B015C01E881F9810190F081E02D59
:100CD0006EE2CE010995E80EF91E115020F120E0D8
:100CE00030E040E251E4C501B4010E94F00B2B0159
:100CF0003C010E940A0B4B01B12CA12C2AE0B5014A
:100D0000A401CE010E942105E80EF91EC501B4011F
:100D10000E94390B9B01AC01C301B2010E94260A5B
:100D20004B015C01DACFC701DF91CF911F91FF909A
:100D3000EF90DF90CF90BF90AF909F908F907F907B
:100D40006F905F904F903F902F9008950C941205F4
:100D50001F920F920FB60F9211242F933F938F93F0
:100D60009F93AF93BF938091BF019091C001A091D9
:100D7000C101B091C2013091BA0123E0230F2D3798
:100D800058F50196A11DB11D2093BA018093BF01B2
:100D90009093C001A093C101B093C2018091BB01A7
:100DA0009091BC01A091BD01B091BE010196A11D21
:100DB000B11D8093BB019093BC01A093BD01B09382
:100DC000BE01BF91AF919F918F913F912F910F9055
:100DD0000FBE0F901F90189526E8230F0296A11DB5
:100DE000B11DD2CF1F920F920FB60F9211242F93E5
:100DF0003F934F935F936F937F938F939F93AF93A3
:100E0000BF93EF93FF9383EC91E00E942603FF9141
:100E1000EF91BF91AF919F918F917F916F915F9172
:100E20004F913F912F910F900FBE0F901F901895EB
:100E30001F920F920FB60F9211242F938F939F93AF
:100E4000EF93FF93E091D301F091D4018081E09181
:100E5000D901F091DA0182FD1BC090818091DC0103
:100E60008F5F8F732091DD01821741F0E091DC01EB
:100E7000F0E0ED53FE4F958F8093DC01FF91EF91F1
:100E80009F918F912F910F900FBE0F901F901895EB
:100E90008081F4CFE3ECF1E01382128288EE93E0DC
:100EA000A0E0B0E084839583A683B78384E091E0DB
:100EB0009183808385EC90E09587848784EC90E033
:100EC0009787868780EC90E0918B808B81EC90E017
:100ED000938B828B82EC90E0958B848B86EC90E0F8
:100EE000978B868B118E128E138E148EE3E7F2E0B1
:100EF0001382128286E191E09183808382E0848371
:100F00008FEF858383E0868384E0878385E0808715
:100F100086E0818787E08287138614861586168689
:100F2000178681E00E945D04A0E6B2E088E0159695
:100F30008C9315978BE016968C931697E6EBF0E062
:100F4000E4911796EC931797E2EAF0E0E491189693
:100F5000EC93189740E85EE360E070E01D964D93D7
:100F60005D936D937C9350970895789484B58260D7
:100F700084BD84B5816084BD85B5826085BD85B53D
:100F8000816085BD80916E00816080936E001092BB
:100F90008100809181008260809381008091810036
:100FA00081608093810080918000816080938000C7
:100FB0008091B10084608093B1008091B000816025
:100FC0008093B00080917A00846080937A00809151
:100FD0007A00826080937A0080917A0081608093A9
:100FE0007A0080917A00806880937A001092C10024
:100FF000E091D301F091D40182E08083E091CF01B0
:10100000F091D0011082E091D101F091D2018FECEA
:1010100080831092DB01E091D701F091D80186E046
:101020008083E091D501F091D60180818061808339
:10103000E091D501F091D601808188608083E091B4
:10104000D501F091D601808180688083E091D5013F
:10105000F091D60180818F7D808382E00E945D04C3
:101060006DE271E083E792E00E94A6068DE291E0D6
:101070000E94A50564EF71E080E090E00E946601A7
:101080000E94550462E0809165020E9410012FB712
:10109000F8948091BF019091C001A091C101B091DD
:1010A000C2012FBF805D9740A109B10980936902F9
:1010B00090936A02A0936B02B0936C0287E38093D3
:1010C00072026DE371E083EC91E00E94A6068091CC
:1010D000B0019091B1010E946D0500E4C0E0D0E044
:1010E0000E949901882349F0809166028B3028F094
:1010F0008D3040F085518230D0F160E070E080ECBE
:101100009FE71CC06091610270E090E080E00E9467
:101110003B0B2DEC3CEC4CEC5DE30E94F00B6B01C7
:101120007C016091600270E090E080E00E943B0BE7
:101130009B01AC01C701B6010E94270A6093B6016A
:101140007093B7018093B8019093B9010E949901FF
:10115000882341F0809166028C3009F445C1C8F4BF
:101160008B3081F160E070E080EC9FE753C06091CC
:1011700060027091610276276727762790E080E011
:101180000E94390B2DEC3CEC4CEC5DE30E94F00B23
:10119000D5CF8551823030F710916202612F70E017
:1011A000762F662766277F7780916302682B90E011
:1011B00080E00E94390B2DEC3CEC4CEC5DE30E948E
:1011C000F00B2EC16091620270E090E080E00E941E
:1011D000390B6B017C011091630217FF0AC0AC014F
:1011E0009B0160E070E080E89FEB0E94260A6B01A3
:1011F0007C011F70612F70E090E080E00E943B0B4B
:101200002DEC3CEC4CEC5DE30E94F00BA701960149
:101210000E94270A6093B2017093B3018093B401D6
:101220009093B50100937C0080917A008064809354
:101230007A0080917A0086FDFCCF809178009091B1
:1012400079009093B1018093B0016AE471E083EC7E
:1012500091E00E94A6064091B6015091B7016091BD
:10126000B8017091B90122E083EC91E00E94B805C9
:1012700065E571E083EC91E00E94A60669E571E006
:1012800083EC91E00E94A6064091B2015091B30117
:101290006091B4017091B50122E083EC91E00E946D
:1012A000B80587E691E00E94A50564EF71E080E053
:1012B00090E00E9466016DE371E083EC91E00E9492
:1012C000A6068091B0019091B1010E946D058091B8
:1012D000B0019091B101843F91400CF4A5C08BE620
:1012E00091E00E94A50564EF71E080E090E00E942B
:1012F000660180E00E94FE046FE871E083E792E0FF
:101300000E94A60681E00E94FE044091B601509121
:10131000B7016091B8017091B90122E083E792E0D2
:101320000E94B80569E971E083E792E00E94A60691
:1013300064EF71E080E090E00E9466010E94550435
:1013400080E00E94FE046BE971E083E792E00E9476
:10135000A60681E00E94FE044091B2015091B301C3
:101360006091B4017091B50122E083E792E00E94A0
:10137000B80568E671E083E792E00E94A60664EF94
:1013800071E080E090E00E9466010E945504809127
:10139000B0019091B101843F91400CF448C080E0CD
:1013A0000E94FE0468EA71E083E792E00E94A606CC
:1013B00081E00E94FE0462E771E083E792E00E9410
:1013C000A60664EF71E080E090E00E9466010E9452
:1013D0005504209709F484CE0E941203882309F44F
:1013E0007FCE0E9400007CCE10916202612F70E0DF
:1013F00090E080E00E94390B6B017C0160916302F8
:101400006F7070E090E080E00E943B0B2DEC3CECB4
:101410004CEC5DE30E94F00BA70196010E94270AA5
:1014200017FFF8CE9058F6CE8CE791E05ACF80E0C7
:101430000E94FE0468EA71E083E792E00E94A6063B
:1014400081E00E94FE0463E871E0B7CF5058BB27EB
:10145000AA270E943E0A0C94B10B0E94A30B38F0FD
:101460000E94AA0B20F039F49F3F19F426F40C9443
:10147000A00B0EF4E095E7FB0C949A0BE92F0E9469
:10148000C20B58F3BA17620773078407950720F059
:1014900079F4A6F50C94E40B0EF4E0950B2EBA2F1C
:1014A000A02D0B01B90190010C01CA01A00111246A
:1014B000FF27591B99F0593F50F4503E68F11A1616
:1014C000F040A22F232F342F4427585FF3CF4695A7
:1014D00037952795A795F0405395C9F77EF41F16C9
:1014E000BA0B620B730B840BBAF09150A1F0FF0F93
:1014F000BB1F661F771F881FC2F70EC0BA0F621F7F
:10150000731F841F48F4879577956795B795F7956E
:101510009E3F08F0B0CF9395880F08F09927EE0F03
:101520009795879508950E94760B08F481E00895B9
:101530000E94AC0A0C94B10B0E94AA0B58F00E94B6
:10154000A30B40F029F45F3F29F00C949A0B511142
:101550000C94E50B0C94A00B0E94C20B68F399232A
:10156000B1F3552391F3951B550BBB27AA2762179F
:101570007307840738F09F5F5F4F220F331F441FAC
:10158000AA1FA9F335D00E2E3AF0E0E832D09150E0
:101590005040E695001CCAF72BD0FE2F29D0660FCD
:1015A000771F881FBB1F261737074807AB07B0E810
:1015B00009F0BB0B802DBF01FF2793585F4F3AF016
:1015C0009E3F510578F00C949A0B0C94E50B5F3F0D
:1015D000E4F3983ED4F3869577956795B795F7959C
:1015E0009F5FC9F7880F911D9695879597F9089584
:1015F000E1E0660F771F881FBB1F62177307840720
:10160000BA0720F0621B730B840BBA0BEE1F88F72E
:10161000E09508950E94CA0B88F09F5798F0B92F63
:101620009927B751B0F0E1F0660F771F881F991F17
:101630001AF0BA95C9F714C0B13091F00E94E40BCA
:10164000B1E008950C94E40B672F782F8827B85FDA
:1016500039F0B93FCCF3869577956795B395D9F76F
:101660003EF490958095709561957F4F8F4F9F4F79
:101670000895E89409C097FB3EF490958095709585
:1016800061957F4F8F4F9F4F9923A9F0F92F96E9CE
:10169000BB279395F695879577956795B795F11143
:1016A000F8CFFAF4BB0F11F460FF1BC06F5F7F4FE0
:1016B0008F4F9F4F16C0882311F096E911C07723F2
:1016C00021F09EE8872F762F05C0662371F096E8FB
:1016D000862F70E060E02AF09A95660F771F881FCA
:1016E000DAF7880F9695879597F90895990F00086E
:1016F000550FAA0BE0E8FEEF16161706E807F907E4
:10170000C0F012161306E407F50798F0621B730B7E
:10171000840B950B39F40A2661F0232B242B252BFF
:1017200021F408950A2609F4A140A6958FEF811DA2
:10173000811D089597F99F6780E870E060E0089543
:101740009FEF80EC089500240A94161617061806D9
:101750000906089500240A941216130614060506B5
:101760000895092E0394000C11F4882352F0BB0F46
:1017700040F4BF2B11F460FF04C06F5F7F4F8F4FA9
:101780009F4F089557FD9058440F551F59F05F3FE4
:1017900071F04795880F97FB991F61F09F3F79F093
:1017A00087950895121613061406551FF2CF469515
:1017B000F1DF08C0161617061806991FF1CF869597
:1017C0007105610508940895E894BB27662777277B
:1017D000CB0197F908950E94760B08F48FEF0895D6
:1017E0000E94030C0C94B10B0E94A30B38F00E94D2
:1017F000AA0B20F0952311F00C949A0B0C94A00BDB
:1018000011240C94E50B0E94C20B70F3959FC1F359
:10181000950F50E0551F629FF001729FBB27F00D9E
:10182000B11D639FAA27F00DB11DAA1F649F6627F3
:10183000B00DA11D661F829F2227B00DA11D621F42
:10184000739FB00DA11D621F839FA00D611D221FFC
:10185000749F3327A00D611D231F849F600D211DE0
:10186000822F762F6A2F11249F5750409AF0F1F063
:1018700088234AF0EE0FFF1FBB1F661F771F881FCC
:1018800091505040A9F79E3F510580F00C949A0B5F
:101890000C94E50B5F3FE4F3983ED4F3869577957F
:1018A0006795B795F795E7959F5FC1F7FE2B880F72
:1018B000911D9695879597F908950E94760B880B50
:1018C000990B0895A1E21A2EAA1BBB1BFD010DC0A6
:1018D000AA1FBB1FEE1FFF1FA217B307E407F507E0
:1018E00020F0A21BB30BE40BF50B661F771F881FBC
:1018F000991F1A9469F760957095809590959B0152
:10190000AC01BD01CF010895EE0FFF1F0590F491CA
:08191000E02D0994F894FFCFCB
:10191800000000004803A802D50295030603E4026C
:10192800F802000000000C05A802B603B5030D0A72
:10193800006E616E00696E66006F766600536D61B9
:10194800727420506C616E7420312E30006C69679F
:10195800687456616C75653A200048756D696469EC
:1019680074793A20002025090054656D706572610C
:10197800747572653A2000202A43004C69676874C0
:101988003A204461792054696D652E004C69676876
:10199800743A204E696768742054696D652E004852
:1019A800756D69646974793A00250054656D7065D0
:1019B8007261747572653A004C696768743A000020
:00000001FF
