:100000000C9462000C948A000C948A000C948A0070
:100010000C948A000C948A000C948A000C948A0038
:100020000C948A000C948A000C948A000C948A0028
:100030000C948A000C948A000C948A000C948A0018
:100040000C94EF060C948A000C945F070C9439070B
:100050000C948A000C948A000C948A000C948A00F8
:100060000C948A000C948A000000000024002700F1
:100070002A0000000000250028002B0000000008D6
:10008000000201000003040700000000000000005F
:1000900000000000230026002900040404040404D6
:1000A0000404020202020202030303030303010227
:1000B00004081020408001020408102001020408F6
:1000C0001020910711241FBECFEFD8E0DEBFCDBFB7
:1000D00012E0A0E0B1E0EEEEFAE102C005900D9270
:1000E000A432B107D9F723E0A4E2B2E001C01D9227
:1000F000A330B207E1F710E0C2E6D0E004C02197D8
:10010000FE010E946F0DC136D107C9F70E94FC079E
:100110000C94750D0C940000CF92DF92EF92FF9239
:10012000CF93DF93B091DF02A0E08111AB2F8091DC
:10013000E00290E0880F991FAC0140575F4FC090DC
:10014000E502D090E602E090E702F090E80230E0AD
:1001500020E0FA01C591D491E881B90190E080E0F6
:10016000EB23EA130AC02F5F3F4F6C157D058E0508
:100170009F0578F36FEF7FEFCB01DF91CF91FF9079
:10018000EF90DF90CF90089590E0FC01E458FF4F8E
:100190002491FC01E255FF4F3491FC01E656FF4FDC
:1001A000E491EE23C9F0222339F0233001F1A8F4C1
:1001B000213019F1223029F1F0E0EE0FFF1FEE5847
:1001C000FF4FA591B4918FB7F894EC91611126C0BF
:1001D00030953E233C938FBF08952730A9F02830F7
:1001E000C9F0243049F7809180008F7D03C0809151
:1001F00080008F7780938000DFCF84B58F7784BDB8
:10020000DBCF84B58F7DFBCF8091B0008F7780935B
:10021000B000D2CF8091B0008F7DF9CF3E2BDACFE6
:10022000CF93DF9390E0FC01E255FF4F2491865677
:100230009F4FFC0184918823D1F090E0880F991F93
:10024000FC01E859FF4FA591B491FC01EE58FF4F16
:10025000C591D491623071F49FB7F8943C91822F8C
:10026000809583238C93E8812E2B28839FBFDF9179
:10027000CF9108958FB7F894EC912E2B2C938FBFCC
:10028000F6CF8E50806480937C0080917A008064E9
:1002900080937A0080917A0086FDFCCF809178006F
:1002A0009091790008953FB7F8948091330290912E
:1002B0003402A0913502B091360226B5A89B05C044
:1002C0002F3F19F00196A11DB11D3FBFBA2FA92FD5
:1002D000982F8827BC01CD01620F711D811D911DD2
:1002E00042E0660F771F881F991F4A95D1F708953E
:1002F0008F929F92AF92BF92CF92DF92EF92FF9236
:100300006B017C010E9453014B015C01C114D104BB
:10031000E104F104B9F00E945301681979098A09CE
:100320009B09683E73408105910580F321E0C21A64
:10033000D108E108F10888EE880E83E0981EA11C20
:10034000B11CE4CFFF90EF90DF90CF90BF90AF90C3
:100350009F908F900895CF92DF92EF92FF920F932C
:100360001F93CF93DF93CDB7DEB7C054D1400FB604
:10037000F894DEBF0FBECDBF2FB7F894809137023F
:1003800090913802A0913902B0913A022FBF40916A
:10039000E1025091E2026091E3027091E4028C016B
:1003A0009D01041B150B260B370BB901A801403D1D
:1003B00057406105710590F48091E902C05CDE4F01
:1003C0000FB6F894DEBF0FBECDBFDF91CF911F9166
:1003D0000F91FF90EF90DF90CF9008958093E1020E
:1003E0009093E202A093E302B093E4021092DC0245
:1003F0001092DB021092DA021092D9021092D80207
:1004000062E08091DD020E94100161E070E080E016
:1004100090E00E94780161E08091DD020E9410016D
:1004200060E08091DD020E94C4008091DE0285516F
:10043000823020F58BE291E10197F1F762E0809143
:10044000DD020E9410018091EA0290E08230910565
:1004500038F0880F991F880F991F05970197F1F7BA
:10046000F89480E00E948C006F3F7F4F8F4F9F4F2A
:1004700061F41092E902789480E0A0CF64E170E02A
:1004800080E090E00E947801D9CF81E00E948C004A
:100490006F3F7F4F8F4F9F4F61F38E010F5F1F4F55
:1004A0006E018FEBC81A8EEFD80A780180E00E94A7
:1004B0008C00F701608371838283938381E00E94C3
:1004C0008C00F7016483758386839783F8E0EF0ED1
:1004D000F11CEC14FD0451F7789430E020E0F801B1
:1004E000C080D180E280F38044815581668177812C
:1004F000FFEFCF16DF06EF06FF0631F04F3F8FEF1D
:1005000058076807780719F41092E902B5CFF90186
:1005100083E0F595E7958A95E1F7E852FD4F8081F4
:10052000880FC416D506E606F70610F180832F5F04
:100530003F4F085F1F4F2832310589F64091DC029A
:100540002091D8028091D902280F3327331F809140
:10055000DA02280F311D8091DB02820F932F911D4B
:1005600099274817190681F681E08093E90226CF82
:100570008160DCCFDC01ED91FC910190F081E02DF8
:100580000994AF92BF92CF92DF92EF92FF920F93B6
:100590001F93CF93DF936C017B018B01040F151F19
:1005A000EB015E01AE18BF08C017D10759F0699181
:1005B000D601ED91FC910190F081E02DC6010995E5
:1005C000892B79F7C501DF91CF911F910F91FF9092
:1005D000EF90DF90CF90BF90AF900895FC01538DC6
:1005E000448D252F30E0842F90E0821B930B54170D
:1005F00010F0CF96089501970895FC01918D828D9A
:10060000981761F0A28DAE0FBF2FB11D5D968C9132
:10061000928D9F5F9F73928F90E008958FEF9FEF71
:100620000895FC01918D828D981731F0828DE80F2D
:10063000F11D858D90E008958FEF9FEF0895FC01E7
:10064000918D228D892F90E0805C9F4F821B9109B4
:100650008F73992708958BE392E00E941F0321E096
:10066000892B09F420E0822F089580E090E0892B07
:1006700029F00E942B0381110C9400000895FC01C5
:10068000A48DA80FB92FB11DA35ABF4F2C91848DF3
:1006900090E001968F739927848FA689B7892C9350
:1006A000A089B1898C91837080648C93938D848DA3
:1006B000981306C00288F389E02D80818F7D8083A6
:1006C0000895EF92FF920F931F93CF93DF93EC0166
:1006D00081E0888F9B8D8C8D98131AC0E889F989E9
:1006E000808185FF15C09FB7F894EE89FF896083EC
:1006F000E889F98980818370806480839FBF81E06D
:1007000090E0DF91CF911F910F91FF90EF900895AE
:10071000F62E0B8D10E00F5F1F4F0F731127E02E89
:100720008C8D8E110CC00FB607FCFACFE889F989C1
:10073000808185FFF5CFCE010E943F03F1CFEB8D85
:10074000EC0FFD2FF11DE35AFF4FF0829FB7F89495
:100750000B8FEA89FB8980818062CFCFCF93DF93B3
:10076000EC01888D8823B9F0AA89BB89E889F989C9
:100770008C9185FD03C0808186FD0DC00FB607FCFE
:10078000F7CF8C9185FFF2CF808185FFEDCFCE0131
:100790000E943F03E9CFDF91CF910895089590E043
:1007A00080E00895CF93DF93EC0160E08E810E949A
:1007B000C40061E08E810E94C40060E08E810E94CE
:1007C000C4008BE891E00197F1F7DF91CF91089594
:1007D000CF92DF92EF92FF920F931F93CF93DF930D
:1007E0006C017C0187E0E80EF11CD0E0C0E0062F30
:1007F00010E0B8010C2E02C0759567950A94E2F7D7
:100800006170F70181917F010E94C4002196C4307C
:10081000D10579F7C601DF91CF911F910F91FF901C
:10082000EF90DF90CF900C94D203CF92DF92EF92B3
:10083000FF920F931F93CF93DF93EC01F62E642F5B
:100840008C810E94C4008D818F3F19F060E00E946E
:10085000C4000F2D10E08F8584FF25C06E0187E056
:10086000C80ED11CF12CE12CB8010E2C02C07595DC
:1008700067950A94E2F76170F60181916F010E9419
:10088000C400FFEFEF1AFF0A88E0E816F10461F7F1
:10089000CE01DF91CF911F910F91FF90EF90DF90EC
:1008A000CF900C94D203B80184E0759567958A9532
:1008B000E1F7CE010E94E8036F2DCE01DF91CF91C9
:1008C0001F910F91FF90EF90DF90CF900C94E80371
:1008D00040E0682F8BEE92E00C94150481E00E94BA
:1008E00068048BE39FE10197F1F70895CF93DF93BD
:1008F000823029F49091FA0298609093FA028093E2
:10090000FE021092FF0280E48093000380E1809356
:10091000010380E58093020361E08091EF020E9471
:1009200010018091F0028F3F19F061E00E941001E8
:1009300061E08091F1020E941001CBEED2E09E01B5
:100940002B5E32408091FA0284FD0BC084E090E07F
:1009500021962817390744F461E08E810E94100126
:10096000EECF88E090E0F4CF8BE39DE00197F1F7C4
:1009700060E08091EF020E94C40060E08091F1028B
:100980000E94C4008091F0028F3F19F060E00E9445
:10099000C4008091FA0284FD34C063E08BEE92E0E3
:1009A0000E94E803CBE4D6E4CE010197F1F763E0BF
:1009B0008BEE92E00E94E8032197F1F763E08BEE63
:1009C00092E00E94E80383E592E00197F1F762E08C
:1009D0008BEE92E00E94E8038091FA0280620E940E
:1009E000680484E08093FB028CE00E9468040E940B
:1009F0006E0482E08093FC0286E0DF91CF910C943C
:100A0000680480620E9468048BE496E40197F1F721
:100A10008091FA0280620E94680483E592E0019767
:100A2000F1F78091FA0280620E946804D5CF90911C
:100A3000FE02891710F08FEF890FE82FF0E0E551E3
:100A4000FD4F848980680C94680441E00E9415047D
:100A500081E090E00895FB0101900020E9F73197D3
:100A6000AF01461B570BDC01ED91FC910280F38135
:100A7000E02D09948F929F92AF92BF92EF92FF92D6
:100A80000F931F93CF93DF93CDB7DEB7A1970FB628
:100A9000F894DEBF0FBECDBF7C01FA01CB0119A2D5
:100AA000223008F42AE08E010F5D1F4F822E912C18
:100AB000B12CA12CBF01A50194010E94FB0AF901F0
:100AC000CA016A300CF5605DD8016E938D01232B4D
:100AD000242B252B79F790E080E0109721F0BD01C1
:100AE000C7010E942B05A1960FB6F894DEBF0FBE7A
:100AF000CDBFDF91CF911F910F91FF90EF90BF90ED
:100B0000AF909F908F900895695CDECFCF92DF9277
:100B1000EF92FF920F931F93CF93DF936B01770FA9
:100B2000EE08FF08F7FE1BC0EC016DE20E94BA025E
:100B30008C0144275527BA014C195D096E097F09BC
:100B40002AE0CE010E943A05800F911FDF91CF91DC
:100B50001F910F91FF90EF90DF90CF9008952AE0C2
:100B6000B701A601DF91CF911F910F91FF90EF90F8
:100B7000DF90CF900C943A05CF92DF92EF92FF92E4
:100B8000CF93DF936C01990FEE08FF08F7FE23C0A7
:100B90006DE28BE392E00E94BA02EC0144275527F4
:100BA000BA014C195D096E097F092AE08BE392E0D6
:100BB0000E943A05C80FD91F6EE171E08BE392E005
:100BC0000E942B058C0F9D1FDF91CF91FF90EF901E
:100BD000DF90CF9008952AE0B701A6018BE392E061
:100BE0000E943A05EC01E8CFCF93DF93BC018BE381
:100BF00092E00E942B05EC016EE171E08BE392E044
:100C00000E942B058C0F9D1FDF91CF9108952F928D
:100C10003F924F925F926F927F928F929F92AF928C
:100C2000BF92CF92DF92EF92FF921F93CF93DF9309
:100C3000EC016A017B01722EAB019601CB01B6017A
:100C40000E94630D61E271E0811126C046015701E7
:100C5000E894B7F82FEF3FEF4FE75FE7C501B40126
:100C60000E94630D81110CC02FEF3FEF4FE75FE74C
:100C7000C501B4010E94990B65E271E0181664F099
:100C80002FEF3FEF4FE75FE4C701B6010E94F10C81
:100C90001816B4F469E271E0CE01DF91CF911F9193
:100CA000FF90EF90DF90CF90BF90AF909F908F908C
:100CB0007F906F905F904F903F902F900C942B05FA
:100CC0002FEF3FEF4FE75FECC701B6010E94990B92
:100CD00087FDE0CF20E030E0A901C701B6010E9406
:100CE000990B312C212C87FF09C06DE2CE010E94A7
:100CF000BA021C01F7FAF094F7F8F09410E060E003
:100D000070E080E09FE3711641F020E030E040E2C7
:100D100051E40E949E0B1F5FF6CFA70196010E942F
:100D20002D0B2B013C010E94100C4B015C012AE0B1
:100D3000BC01A401CE010E943A057C01E20CF31C27
:100D40001123C1F1C501B4010E943F0C9B01AC010C
:100D5000C301B2010E942C0B4B015C016EE2CE017B
:100D60000E94BA02E80EF91E115020F120E030E096
:100D700040E251E4C501B4010E94F60C2B013C0194
:100D80000E94100C4B01B12CA12C2AE0B501A4014A
:100D9000CE010E943A05E80EF91EC501B4010E9479
:100DA0003F0C9B01AC01C301B2010E942C0B4B0113
:100DB0005C01DACFC701DF91CF911F91FF90EF90D7
:100DC000DF90CF90BF90AF909F908F907F906F906B
:100DD0005F904F903F902F9008950C942B051F9299
:100DE0000F920FB60F9211242F933F938F939F93DF
:100DF000AF93BF938091370290913802A09139024E
:100E0000B0913A023091320223E0230F2D3758F58A
:100E10000196A11DB11D2093320280933702909359
:100E20003802A0933902B0933A0280913302909134
:100E30003402A0913502B09136020196A11DB11D78
:100E40008093330290933402A0933502B09336021C
:100E5000BF91AF919F918F913F912F910F900FBEB6
:100E60000F901F90189526E8230F0296A11DB11D23
:100E7000D2CF1F920F920FB60F9211242F933F9350
:100E80004F935F936F937F938F939F93AF93BF9392
:100E9000EF93FF938BE392E00E943F03FF91EF916A
:100EA000BF91AF919F918F917F916F915F914F9182
:100EB0003F912F910F900FBE0F901F9018951F928A
:100EC0000F920FB60F9211242F938F939F93EF934E
:100ED000FF93E0914B02F0914C028081E09151022E
:100EE000F091520282FD1BC09081809154028F5F6D
:100EF0008F7320915502821741F0E0915402F0E087
:100F0000E55CFD4F958F80935402FF91EF919F9187
:100F10008F912F910F900FBE0F901F901895808189
:100F2000F4CFEBE3F2E01382128288EE93E0A0E0CC
:100F3000B0E084839583A683B78384E091E09183B6
:100F4000808385EC90E09587848784EC90E0978798
:100F5000868780EC90E0918B808B81EC90E0938B86
:100F6000828B82EC90E0958B848B86EC90E0978B63
:100F7000868B118E128E138E148EEBEEF2E013829E
:100F8000128286E191E09183808382E084838FEFF7
:100F9000858383E0868384E0878385E0808786E09D
:100FA000818787E0828713861486158616861786C2
:100FB00081E00E947604A8EDB2E088E015968C935B
:100FC00015978BE016968C931697E6EBF0E0E4917C
:100FD0001796EC931797E2EAF0E0E4911896EC93F9
:100FE000189740E85EE360E070E01D964D935D93D6
:100FF0006D937C9350970895789484B5826084BDF6
:1010000084B5816084BD85B5826085BD85B581600C
:1010100085BD80916E00816080936E00109281008A
:101020008091810082608093810080918100816045
:101030008093810080918000816080938000809106
:10104000B10084608093B1008091B0008160809392
:10105000B00080917A00846080937A0080917A0059
:10106000826080937A0080917A00816080937A0018
:1010700080917A00806880937A001092C100E0919C
:101080004B02F0914C0282E08083E0914702F091A4
:1010900048021082E0914902F0914A028FEC80836D
:1010A00010925302E0914F02F091500286E080834B
:1010B000E0914D02F0914E02808180618083E09149
:1010C0004D02F0914E02808188608083E0914D0254
:1010D000F0914E02808180688083E0914D02F09112
:1010E0004E0280818F7D808382E00E94760480E0C2
:1010F0000E9417056DE271E08BEE92E00E94ED0612
:1011000081E00E94170561E571E08BEE92E00E949C
:10111000ED0688E391E00E94F40586E491E00E94E8
:10112000F40588E391E00E94F40568EE73E080E046
:1011300090E00E9478010E946E0462E08091DD02DE
:101140000E9410012FB7F8948091370290913802D5
:10115000A0913902B0913A022FBF805D9740A1095A
:10116000B1098093E1029093E202A093E302B0936D
:10117000E40287E38093EA029BEFC92E93E0D92E25
:10118000E12CF12CC0E0D0E081E591E00E94F40573
:101190000E94AB01882349F08091DE028B3028F059
:1011A0008D3040F085518230D0F160E070E080EC0D
:1011B0009FE71CC06091D90270E090E080E00E943F
:1011C000410C2DEC3CEC4CEC5DE30E94F60C4B0129
:1011D0005C016091D80270E090E080E00E94410CD8
:1011E0009B01AC01C501B4010E942D0B60932E023E
:1011F00070932F0280933002909331020E94AB01D2
:10120000882341F08091DE028C3009F4A3C1C8F438
:101210008B3081F160E070E080EC9FE753C060911B
:10122000D8027091D90276276727762790E080E070
:101230000E943F0C2DEC3CEC4CEC5DE30E94F60C64
:10124000D5CF8551823030F71091DA02612F70E0EE
:10125000762F662766277F778091DB02682B90E0E8
:1012600080E00E943F0C2DEC3CEC4CEC5DE30E94D6
:10127000F60C8CC16091DA0270E090E080E00E9490
:101280003F0C4B015C011091DB0217FF0AC0AC015F
:101290009B0160E070E080E89FEB0E942C0B4B010B
:1012A0005C011F70612F70E090E080E00E94410CB3
:1012B0002DEC3CEC4CEC5DE30E94F60CA501940196
:1012C0000E942D0B60932A0270932B0280932C02B4
:1012D00090932D028EE00E94410190932902809309
:1012E00028028FE00E9441019093270280932602FA
:1012F00024E630E0DC010E94680DA70196010E94FF
:10130000DC0A309325022093240261E671E08BE32E
:1013100092E00E94ED0640912E0250912F026091C2
:1013200030027091310222E08BE392E00E940706C6
:1013300080E791E00E94F40564E771E08BE392E0BE
:101340000E94ED0640912A0250912B0260912C02DE
:1013500070912D0222E08BE392E00E94070682E862
:1013600091E00E94F40566E871E08BE392E00E9450
:10137000ED0680912802909129020E94BC0580917F
:10138000280290912902843F91400CF403C187E91F
:1013900091E00E94F4056BEB71E08BE392E00E9418
:1013A000ED0680912602909127020E94BC0560ED17
:1013B00071E08BE392E00E94ED066091240270914F
:1013C00025028BE392E00E94860580EE91E00E9468
:1013D000F40588E391E00E94F40568EE73E080E094
:1013E00090E00E94780180E00E94170561E571E0BD
:1013F0008BEE92E00E94ED0681E00E94170562EEFE
:1014000071E08BEE92E00E94ED0668EE73E080E002
:1014100090E00E9478010E946E0480E00E9417050F
:1014200062EF71E08BEE92E00E94ED0681E00E9497
:10143000170540912E0250912F0260913002709159
:10144000310222E08BEE92E00E94070660EE71E02E
:101450008BEE92E00E94ED0668EE73E080E090E093
:101460000E9478010E946E0480E00E94170560E0EF
:1014700072E08BEE92E00E94ED0681E00E9417057B
:1014800040912A0250912B0260912C0270912D0202
:1014900022E08BEE92E00E94070663E871E08BEE9B
:1014A00092E00E94ED0668EE73E080E090E00E941A
:1014B00078010E946E048091280290912902843F55
:1014C00091400CF46AC080E00E9417056DE072E064
:1014D0008BEE92E00E94ED0681E00E9417056EE916
:1014E00071E08BEE92E00E94ED0668EE73E080E022
:1014F00090E00E9478010E946E0480E00E9417052F
:1015000064E172E08BEE92E00E94ED0681E00E94C1
:10151000170560912402709125028BEE92E00E94E3
:10152000860560EE71E08BEE92E00E94ED0668EEBB
:1015300073E080E090E00E9478010E946E042097A2
:1015400009F422CE0E942B03882309F41DCE0E94A9
:1015500000001ACE1091DA02612F70E090E080E076
:101560000E943F0C4B015C016091DB026F7070E0E8
:1015700090E080E00E94410C2DEC3CEC4CEC5DE3F3
:101580000E94F60CA50194010E942D0B17FF9ACE24
:10159000905898CE88EA91E0FCCE80E00E94170532
:1015A0006DE072E08BEE92E00E94ED0681E00E9419
:1015B00017056FEA71E095CF052E97FB1EF4009496
:1015C0000E94F30A57FD07D00E94FB0A07FC03D0D4
:1015D0004EF40C94F30A50954095309521953F4F69
:1015E0004F4F5F4F089590958095709561957F4F0F
:1015F0008F4F9F4F0895A1E21A2EAA1BBB1BFD011E
:101600000DC0AA1FBB1FEE1FFF1FA217B307E407E1
:10161000F50720F0A21BB30BE40BF50B661F771F39
:10162000881F991F1A9469F7609570958095909519
:101630009B01AC01BD01CF010895A29FB001B39FF2
:10164000C001A39F700D811D1124911DB29F700DCB
:10165000811D1124911D08955058BB27AA270E946F
:10166000440B0C94B70C0E94A90C38F00E94B00CEB
:1016700020F039F49F3F19F426F40C94A60C0EF4D4
:10168000E095E7FB0C94A00CE92F0E94C80C58F3DE
:10169000BA17620773078407950720F079F4A6F557
:1016A0000C94EA0C0EF4E0950B2EBA2FA02D0B0132
:1016B000B90190010C01CA01A0011124FF27591B97
:1016C00099F0593F50F4503E68F11A16F040A22F9D
:1016D000232F342F4427585FF3CF4695379527950E
:1016E000A795F0405395C9F77EF41F16BA0B620B0D
:1016F000730B840BBAF09150A1F0FF0FBB1F661F54
:10170000771F881FC2F70EC0BA0F621F731F841F96
:1017100048F4879577956795B795F7959E3F08F0BC
:10172000B0CF9395880F08F09927EE0F979587957E
:1017300008950E947C0C08F481E008950E94B20B89
:101740000C94B70C0E94B00C58F00E94A90C40F009
:1017500029F45F3F29F00C94A00C51110C94EB0C70
:101760000C94A60C0E94C80C68F39923B1F355237E
:1017700091F3951B550BBB27AA27621773078407A4
:1017800038F09F5F5F4F220F331F441FAA1FA9F33A
:1017900035D00E2E3AF0E0E832D091505040E69528
:1017A000001CCAF72BD0FE2F29D0660F771F881F89
:1017B000BB1F261737074807AB07B0E809F0BB0B7C
:1017C000802DBF01FF2793585F4F3AF09E3F510590
:1017D00078F00C94A00C0C94EB0C5F3FE4F3983E73
:1017E000D4F3869577956795B795F7959F5FC9F779
:1017F000880F911D9695879597F90895E1E0660FFA
:10180000771F881FBB1F621773078407BA0720F072
:10181000621B730B840BBA0BEE1F88F7E0950895DB
:101820000E94D00C88F09F5798F0B92F9927B75194
:10183000B0F0E1F0660F771F881F991F1AF0BA9574
:10184000C9F714C0B13091F00E94EA0CB1E00895DC
:101850000C94EA0C672F782F8827B85F39F0B93FCE
:10186000CCF3869577956795B395D9F73EF4909527
:101870008095709561957F4F8F4F9F4F0895E894A5
:1018800009C097FB3EF490958095709561957F4FC8
:101890008F4F9F4F9923A9F0F92F96E9BB27939576
:1018A000F695879577956795B795F111F8CFFAF486
:1018B000BB0F11F460FF1BC06F5F7F4F8F4F9F4FB7
:1018C00016C0882311F096E911C0772321F09EE815
:1018D000872F762F05C0662371F096E8862F70E07B
:1018E00060E02AF09A95660F771F881FDAF7880F55
:1018F0009695879597F90895990F0008550FAA0BAB
:10190000E0E8FEEF16161706E807F907C0F0121612
:101910001306E407F50798F0621B730B840B950B15
:1019200039F40A2661F0232B242B252B21F408956A
:101930000A2609F4A140A6958FEF811D811D089507
:1019400097F99F6780E870E060E008959FEF80EC72
:10195000089500240A941616170618060906089515
:1019600000240A9412161306140605060895092E7B
:101970000394000C11F4882352F0BB0F40F4BF2BEA
:1019800011F460FF04C06F5F7F4F8F4F9F4F08952A
:1019900057FD9058440F551F59F05F3F71F0479520
:1019A000880F97FB991F61F09F3F79F08795089505
:1019B000121613061406551FF2CF4695F1DF08C024
:1019C000161617061806991FF1CF86957105610541
:1019D00008940895E894BB2766277727CB0197F9E9
:1019E00008950E947C0C08F48FEF08950E94090D61
:1019F0000C94B70C0E94A90C38F00E94B00C20F097
:101A0000952311F00C94A00C0C94A60C11240C94AA
:101A1000EB0C0E94C80C70F3959FC1F3950F50E03A
:101A2000551F629FF001729FBB27F00DB11D639F90
:101A3000AA27F00DB11DAA1F649F6627B00DA11D36
:101A4000661F829F2227B00DA11D621F739FB00DDC
:101A5000A11D621F839FA00D611D221F749F33274C
:101A6000A00D611D231F849F600D211D822F762FE5
:101A70006A2F11249F5750409AF0F1F088234AF0C2
:101A8000EE0FFF1FBB1F661F771F881F915050402E
:101A9000A9F79E3F510580F00C94A00C0C94EB0C20
:101AA0005F3FE4F3983ED4F3869577956795B795B5
:101AB000F795E7959F5FC1F7FE2B880F911D9695CF
:101AC000879597F908950E947C0C880B990B0895CF
:101AD0000E941D0BB7FF0895821B930B0895EE0F14
:0E1AE000FF1F0590F491E02D0994F894FFCFBC
:101AEE00000000006103C102EE02AE031F03FD02FF
:101AFE001103000000002505C102CF03CE030D0A1D
:101B0E00006E616E00696E66006F76660057656CDA
:101B1E00636F6D6520746F002A2A2A2A2A2A2A2AC0
:101B2E002A2A2A2A2A0057656C636F6D6520746F06
:101B3E0020536D61727420506C616E7420312E30A2
:101B4E00004169722048756D69646974793A2000A4
:101B5E002025090054656D70657261747572653A61
:101B6E002000202A4300526177206C696768745602
:101B7E00616C75653A20004C696768743A2044615F
:101B8E00792054696D652E004C696768743A204E51
:101B9E00696768742054696D652E00526177204D17
:101BAE006F6973747572652056616C75653A2000A5
:101BBE00536F696C204D6F6973747572653A2000AE
:101BCE00250052656164696E672073656E736F726E
:101BDE0073004169722048756D69646974793A00C1
:101BEE0054656D70657261747572653A004C696703
:101BFE0068743A00536F696C204D6F697374757217
:041C0E00653A000033
:00000001FF
